:0804D200C200C201C202C20314
:2004E700AF822004058F820241C578027901C3E3F5F0E295F0501A7802E2FE780204F290D8
:2005070000BBE0FCA3E0FDEE2CF582E43DF583EFF022AF83E5829000BEF0EFA3F09000BEEB
:20052700E0FEA3E0FF9000BBEEF0EFA3F07802E4F29000BDE07801F2D20422C2047802E2A7
:20054700F58222AD82AE83AFF08D828E838FF0126B65FC700122BC250280030207B9C203FF
:20056700C202C201C2000DBD00010E8D828E838FF0126B65FBBB6802800CBB6C10D2000D0F
:20058700BD000A0E8007D2020DBD00010E8D828E838FF0126B65FBBB63028030BB6402805E
:2005A70018BB6F02802BBB7302800ABB7502800EBB78238010D201801D75080A80187508D9
:2005C7000AD2038011750810D203800A7508008005750808D203300171A8811818E624FD5A
:2005E700FBA8811818A6038B01870909870A09870B1919C005C006C007AA09AB0AAF0B8A76
:20060700828B838FF0126B65D007D006D00570030207CAC005C006C007AA09AB0AAF0B8A1C
:20062700828B838FF0126B65FA0509E4B50902050A8A82C007C006C0051204E7D005D00601
:20064700D007D007D006D00580A9300366300021A8811818E624FCFBA8811818A6038B013F
:20066700870C09870D09870E09870F19191902072030021DA8811818E614F9A8811818A6F8
:200687000187038B0C750D00750E00750F00020720A8811818E624FEFBA8811818A6038B96
:2006A700018702098703198A0C8B0D750E00750F008066300020A8811818E624FCFBA8810F
:2006C7001818A6038B01870C09870D09870E09870F191919804330021EA8811818E614FB95
:2006E700A8811818A6038B01E7FBF50C3395E0F50DF50EF50F8022A8811818E624FEFBA82B
:20070700811818A6038B018702098703198A0CEBF50D3395E0F50EF50FE50870030207A478
:2007270030032F9005A67477F0E4A3F07440A3F09005A9E508F0850C82850D83850EF0E5D1
:200747000FC007C006C005125F71D005D006D007802D9005CF7477F0E4A3F07440A3F09093
:2007670005D2E508F0850C82850D83850EF0E50FC007C006C005126087D005D006D00779D9
:2007870077E7FB603E8B82C007C006C005C0011204E7D001D005D006D0070980E4AB0C8B3C
:2007A70082C007C006C0051204E7D005D006D00780118C82C007C006C0051204E7D005D04C
:2007C70006D0070DBD00010E020550E58124FCFFC007E58124FBF886820886830886F01293
:0507E700054A15812206
:2007EC00AF827E007D00AB10AC118F021FEA603B8B828C83E0FAA3AB82AC83ED2DF9ED30EF
:20080C00E714890009E8906D75936EFDE9906D7593F86AFE80D4890009E8906C7593F86E61
:1B082C00FDE9906C7593F96AFE80BF8D07E4FDFCEE4205EC42078D828F832209
:206C75000000102120423063408450A560C670E781089129A14AB16BC18CD1ADE1CEF1EFFF
:206C9500123102103273225252B5429472F762D693398318B37BA35AD3BDC39CF3FFE3DEBF
:206CB500246234430420140164E674C744A45485A56AB54B85289509E5EEF5CFC5ACD58D7F
:206CD500365326721611063076D766F6569546B4B75BA77A97198738F7DFE7FED79DC7BC3F
:206CF50048C458E5688678A70840186128023823C9CCD9EDE98EF9AF89489969A90AB92BFF
:206D15005AF54AD47AB76A961A710A503A332A12DBFDCBDCFBBFEB9E9B798B58BB3BAB1ABE
:206D35006CA67C874CE45CC52C223C030C601C41EDAEFD8FCDECDDCDAD2ABD0B8D689D497E
:206D55007E976EB65ED54EF43E132E321E510E70FF9FEFBEDFDDCFFCBF1BAF3A9F598F783E
:206D7500918881A9B1CAA1EBD10CC12DF14EE16F108000A130C220E35004402570466067FE
:206D950083B99398A3FBB3DAC33DD31CE37FF35E02B1129022F332D24235521462777256BE
:206DB500B5EAA5CB95A88589F56EE54FD52CC50D34E224C314A0048174666447542444057E
:206DD500A7DBB7FA879997B8E75FF77EC71DD73C26D336F2069116B066577676461556343E
:206DF500D94CC96DF90EE92F99C889E9B98AA9AB584448657806682718C008E1388228A3FE
:206E1500CB7DDB5CEB3FFB1E8BF99BD8ABBBBB9A4A755A546A377A160AF11AD02AB33A92BD
:206E3500FD2EED0FDD6CCD4DBDAAAD8B9DE88DC97C266C075C644C453CA22C831CE00CC17D
:206E5500EF1FFF3ECF5DDF7CAF9BBFBA8FD99FF86E177E364E555E742E933EB20ED11EF03D
:20084700AF82900489E0F56F7CFF7DFF7406256FFBFA2488F582E43404F583EFF00A7804E9
:200867007401F27804C3E29A5065C0027804E22488F582E43404F583E0FB8C71757200E51F
:2008870071F5736BF570C454F0F57462708D75757600AB707E008B077A00E5756202E576BA
:2008A7006207EEC40354F8CBC403CB6BCB54F8CB6BFEEB6202EE6207E570C4540FFE7B0019
:2008C7006AFCEB6FFD7804E22401F2D00280947406256F2488F582E43404F5838C06EEF0C4
:2008E7007407256F2488F582E43404F5838D04ECF022AF828F6F8F047D007805E27B002C57
:20090700FCEB3DFDAA6F7B00C3EA9CEB64808DF063F08095F05032E56F2488FCE43404FD97
:200927008C828D83E0F570E56F042488FAE43404FB8A828B83E0FE8C828D83F08A828B8318
:20094700E570F0056F056F80AD2290048874FEF09004897409F07803E2FF780304F29004AB
:200967008AEFF090048B7433F090048C7444F090048D74A6F0785EE2FE08E2FF90048EEEAF
:20098700F0EFA3F07868E2FE08E2FF90049075F000EE126476A3EF12647612418AAF8290B6
:2009A700049475F000EF126476758215120847123E1EAE82AF83C3EE9411EF9400500122CF
:2009C700787F7411F2900488123CFF90048D746DF07582B9120847123E1EAE82AF83C3EEB5
:1309E7009411EF9400500122787F7411F2900488023CFF9B
:2009FA00AE82AF83E0FDBDFE1A8E828F83A3E0FDBD091074052EFEE43FFF8E828F83E07018
:200A1A0002D20A22E5827810F21241367811E582F208E583F27B007C00781374FFF208F22D
:200A3A007811C3E2940808E294005003020B148B828C83C004C003123F89858228D003D091
:200A5A000474FEB528028003020B1474012BFEE43CFF8E828F83C004C003123F8985822814
:200A7A00D003D004740925285003020B14C003C004AD287E0074082DFAE43EFC7810E2F57D
:200A9A00298E2A7806E2FB7F00E529C39BFBE52A9FFFC3EB9AEF64808CF063F08095F0D0AE
:200ABA0004D003405574082DFDE43EFE7811C3E29D08E29E404474062BFEE43CFF8E828FB2
:200ADA0083C004C003123F89AF82D003D004BF460C7412B528077813EBF208ECF2740825D6
:200AFA0028F528AA287F007811E2C39AF208E29FF2EA2BFBEF3CFC020A3A7813E2F58208A8
:200B1A00E2F58322E5829002B8F0E4F52DF52E780A7980E2F39001BC123FC1780AE2FD78ED
:200B3A0006F27815E2FA08E2FB7C009005E874BCF07401A3F0E4A3F09005EBEDF0E4A3F0E9
:200B5A008A828B838CF01263D6780AE4F27815E2F58208E2F5831209FA900485E0FDBD0230
:200B7A000F9002B8E0F582120A1EAC82AD8380047CFF7DFF8C2F8D3012413685822B85835D
:200B9A002C9002B8E0F53474FFB52F0974FFB5300474018001E4FCC3E52B9408E52C940016
:200BBA005003020CF1C004123F32858231D00474FEB5310280067806E2F58222C004123F88
:200BDA004E858231D004740925315003020CF1C00485313275330074082532FBE43533FE10
:200BFA00AA347F007806E2FC7D00EAC39CFAEF9DFFC3EA9BEF64808EF063F08095F0D00412
:200C1A005003020CF174082532FEE43533FFC3E52B9EE52C9F5003020CF1EC7028E52DB58E
:200C3A002F07E52EB53002801C900006C004123F89AF82D004BF460D7412B531087408256E
:200C5A0031F531807074082531F5317806E224BCFEE43401FF7880E531F28E828F83C004FF
:200C7A00123FC178157906E3C5F0E225F0FE08E23400FF7D007806E224BCFAE43401FB9037
:200C9A0005E8EAF0EBA3F0E4A3F09005EBE531F0E4A3F08E828F838DF01263D6781579068B
:200CBA00E3C5F0E225F0FE08E23400FF8E828F831209FAD0047806E22531F2AE317F00E57A
:200CDA002BC39EF52BE52C9FF52CEE252DF52DEF352EF52E020BB17806E2F58222858235B3
:200CFA00124136858236858337200816301A652005627806E2605DC3E5369420E537940002
:200D1A0050527806C3E2F5F0E53595F050087806E4F275820022D205C2087817E2FA08E2B5
:200D3A00FB7C009005E874BCF07401A3F0E4A3F078069005EBE2F0E4A3F08A828B838CF029
:200D5A001263D67806E2F5367537007806E4F2AB368B8222C205200903020E267806E2FB0F
:200D7A007C008B368C378535388C39C3E5389536E539953750657817E2FA08E2FE7F0090F6
:200D9A0005E874BCF07401A3F0E4A3F09005EBE538F0E539A3F08A828E838FF01263D6E5A3
:200DBA003524BCFEE43401FF9005E8EEF0EFA3F0E4A3F0AE357F009005EBE536C39EF0E567
:200DDA00379FA3F09001BC75F0001263D6E536C395357806F2D206853582227817E2FD08CF
:200DFA00E2FE7F009005E874BCF07401A3F0E4A3F09005EBEBF0ECA3F08D828E838FF012D3
:200E1A0063D6C209D2067806E2F58222C206AE357F00C3EE9536EF953750048E368F37782C
:200E3A0006E4F2E53645377003F58222900485E07053E53645376043AD367880EDF27817DA
:200E5A00E2F58208E2F583C005123FC1D005502B78179005E8E2F008E2A3F0E4A3F090052F
:200E7A00EBE536F0E537A3F09001BC75F000C0051263D6D0057806EDF280047806E4F2786F
:200E9A0006E2F58222780AE2B401028003020F347401B53606E4B5370280028079125D3979
:200EBA00AE82AF83780BD3E29EF4B3FEB308E29FF4FF780DC3E29E08E29F50567806E2FFB6
:200EDA00780604F2EF24BCFFE43401FEC007C006123E81AD82D006D0078F828E83EDF078EE
:200EFA0017E2FD08E2FE7F009005E874BCF07401A3F0E4A3F078069005EBE2F0E4A3F08D8B
:200F1A00828E838FF01263D6780AE4F27806E2F5822275820022780AE4F2780AE2700302BF
:200F3A000FC3780AE2FE7F00C3E5369EE5379F5068125D39AE82AF83780BD3E29EF4B3FE70
:200F5A00B308E29FF4FF780DC3E29E08E29F5045AD367880EDF29001BCC005123FC1D005AF
:200F7A007806EDF27817E2FC08E2FE7F009005E874BCF07401A3F0E4A3F09005EBEDF0E4C9
:200F9A00A3F08C828E838FF01263D6780AE4F27806E2F582227582002278177915E2F30857
:200FBA00E209F3853582020B1EE53645377003021164123F32AF82BFFE028003021135749F
:200FDA0001B53606E4B537028002802E7806E26003021164780A7401F2125D39E5828583C9
:200FFA00F0780BF208E5F0F27808E2FE08E2FF780DEEF208EFF275820022123F4EAF8278AB
:20101A000AEFF2BFF70050208F057E0074082DFDE43EFE780FE2FB7C00C3EB9DEC64808E44
:20103A00F063F08095F05033780AE4F27806E2FE780604F2EE24BCFEE43401FDC006C00534
:20105A00123E81AC82D005D0068E828D83ECF0153674FFB536021537020FC374082FFF78E3
:20107A000AF27806E260627817E2FC08E2FD7E009005E874BCF07401A3F0E4A3F07806903C
:20109A0005EBE2F0E4A3F08C828D838EF01263D6125D39E5828583F0780BF208E5F0F27853
:2010BA000AE2FD7E0078089005F3E2F008E2A3F08D828E831264C1E5828583F0780DF20823
:2010DA00E5F0F27806E2F582227E00C3E5369FE5379E5037125D39E5828583F0780BF20876
:2010FA00E5F0F2780AE2FE7F0078089005F3E2F008E2A3F08E828F831264C1E5828583F01F
:20111A00780DF208E5F0F27582002278177915E2F308E209F3853582020B1E7806E2FF7840
:20113A000604F2EF24BCFFE43401FEC007C006123E81AD82D006D0078F828E83EDF0153630
:20115A0074FFB536021537020FC37817E2FD08E2FE7F009005E874BCF07401A3F0E4A3F004
:20117A0078069005EBE2F0E4A3F08D828E838FF01263D67806E2F58222A20522A20622D2C6
:20119A000822E5829002B9F0E0780FF222AF83E5829002BAF0EFA3F09002BAE0FEA3E0FFEB
:2011BA009005D9EEF0EFA3F0E4A3F0A3F090000075F001E4126270AC82AD83AEF0FF0CBCBC
:2011DA0000090DBD00050EBE00010F7808ECF208EDF222E5829002BCF0200B397819E2FD61
:2011FA0008E2FE7F009002BCE0FCFA7B009005E8EDF0EEA3F0EFA3F09005EBEAF0EBA3F09A
:20121A009000C075F000C0041263D6D0047807ECF2C207C3222007379002BCE0FF7807E225
:20123A00B5072C7819900608E2F008E2A3F0E4A3F090060BEFF0E4A3F09000C075F00012F9
:20125A0066F7E5828583F045F07004C207D322D207C322AF82BF130050259000BD74FCF06E
:20127A009001BCC007120519D0078F82122FC0120542AF827806EFF2EF6004C205D2092227
:20129A00D20D9000BD74FCF09001BC1205191214EE120542AF827806EFF2EF6004C205D242
:2012BA000922AE82AF83781BC3E2F5F074FC95F05005781B74FCF29005E8EEF0EFA3F0E46A
:2012DA00A3F0781B9005EBE2F0E4A3F09001BC75F0001263D6781BE27806F2C205D209225F
:0A04DA00781C7441F278217464F27A
:2012FA00AF828F06BE08028021BE0D028005BE7F36801775820A1241C5781DE224BDF58261
:20131A00E43402F583E4F0D20D22781DE260667582081241C57582201241C5758208124177
:20133A00C5781DE214F222781DE2B4100050408F057E008D828E83C006C005126936E5828F
:20135A008583F0D005D00645F0602A8D828E831269EFAD828D07781DE2FE781D04F2EE24B2
:20137A00BDF582E43402F583EFF08F820241C5C20C781DE4F222AF82BF2B0280047820E41D
:20139A00F27820C3E2F5F0740495F0402C7820E275F003A49013B2730213D70213C1021391
:2013BA00C10213C80213D77820E22401F22278207404F278217464F2227820E4F2782174D4
:2013DA0064F2227821E2603B7821E214F27821E270317820E260087820E2B4042680067890
:2013FA00207401F222D20C7820E4F29002BD7441F09002BE7454F09002BFE4F0781D7402B2
:20141A00F2D20D22E5812404F5817C007D007E007F00C004C005C006C007781EE224BDF561
:20143A0082E43402F583E0FBFA7F008A828F83C007C006C005C004C00312644AE582858304
:20145A00F0D003D004D005D006D007D007D006D005D00445F0606D9005FFECF0EDA3F0EE23
:20147A00A3F0EFA3F090000AE4F5F0C0031265DEAF82AE83ADF0FCD0038B027B00EA24D00E
:20149A00FAEB34FFFBE58124FDF8A60208A603EB3395E008F608F6E58124FDF8E62FF60826
:2014BA00E63EF608E63DF608E63CF6E58124FDF88604088605088606088607781EE2240155
:2014DA00F202142C8C828D838EF0EFC8E58124FCF581C822200D0122781DE2B40200E433F1
:2014FA00FF60030215779002BDE0FEBE526F9002BEE0FEBE5467781E7403F2781D791EC3A1
:20151A00E2F5F0E395F0501B781EE224BDF582E43402F583E0FEBE2C028008781EE22401C6
:20153A00F280D8781EE224BDF582E43402F583E0FEBE2C1C781EE2FE781E04F2EE24BDF53B
:20155A0082E43402F583E4F012141E124B18800690FFFF124B18781DE4F2C20D22EF706923
:20157A009002BDE0FFBF41619002BEE0FFBF54599002BFE0FF6023BF26028023BF2B02807E
:20159A0023BF49028023BF4F028028BF5002801EBF53028027BF5A2E80271215EA802A1284
:2015BA00183880251219168020121628801B121913801678217464F2C20C800D1217A7806E
:2015DA000843EF1080FE121609781DE4F2C20D227829E2C0E008E2C0E07475C0E0746EC0C4
:2015FA00E07480C0E01207D2E58124FBF581227829E2C0E008E2C0E0747EC0E0746EC0E094
:20161A007480C0E01207D2E58124FBF581229002C0E0FF6037BF30028032BF31028058BF20
:20163A0032030216BCBF33030216E2BF340302170BBF3503021734BF3603021746BF3703EA
:20165A00021749BF380302174C0217A474C1C0E07472C0E07480C0E07829E2C0E008E2C036
:20167A00E0748AC0E0746EC0E07480C0E01207D2E58124F8F5812274D6C0E07472C0E074D3
:20169A0080C0E07829E2C0E008E2C0E0748AC0E0746EC0E07480C0E01207D2E58124F8F54D
:2016BA008122744EC0E0E4C0E07829E2C0E008E2C0E07493C0E0746EC0E07480C0E0120704
:2016DA00D2E58124F9F58122785CE2FE7F00C006C0077829E2C0E008E2C0E07493C0E0747B
:2016FA006EC0E07480C0E01207D2E58124F9F58122785DE2FE7F00C006C0077829E2C0E044
:20171A0008E2C0E07493C0E0746EC0E07480C0E01207D2E58124F9F581227F008F82C0070B
:20173A00122FC0D0070FBF130040F122025BBF02426C7829E2F5F008E245F070207829E21D
:20175A00C0E008E2C0E0749CC0E0746EC0E07480C0E01207D2E58124FBF581802C1257BBC9
:20177A00920EE433FE7F00C006C0077829E2C0E008E2C0E074ADC0E0746EC0E07480C0E00A
:20179A001207D2E58124F9F58122021609781E7403F212141EAC82AD83AEF0FFBC130040BB
:2017BA0003021609781EE224BDF582E43402F583E0FFBF3D028036BF3F618C82122C8BAB15
:2017DA0082AD83AEF0FFC003C005C006C0077829E2C0E008E2C0E074BCC0E0746EC0E07418
:2017FA0080C0E01207D2E58124F7F58122EC602B781EE22401F2C00412141EAB82AD83AE92
:20181A00F0FFD0047850EBF208EDF208EEF208EFF28C82122A9950030215EA0216099002A4
:20183A00C0E0FFBF46028012BF54028053BF55028014BF57028009021910122F260215EA90
:20185A00122EEA0215EA9005F574C6F0746EA3F07480A3F09002C175F0001264E1E5828598
:20187A0083F045F0701775B7A575B7F1758F0390F7FE74FFF0758F0043EF1080FE0216095D
:20189A009005F574CCF0746EA3F07480A3F09002C175F0001264E1E5828583F045F0700560
:2018BA00781FE4F2229005F574CDF0746EA3F07480A3F09002C175F0001264E1E58285834A
:2018DA00F045F07007781FE26401F2229005F574D3F0746EA3F07480A3F09002C175F000EB
:2018FA001264E1E5828583F045F07007781FE26402F222021609021609021609781E740408
:07191A00F212141E0216096F
:206E75005B25755D204F4B0A005B25755D204552524F520A005B25755D2025730A005B254D
:206E9500755D2025750A005B25755D2053796E633A20426173650A005B25755D2053796EAD
:206EB500633A2025750A005B25755D20256C750A00504441544500003D52535349003D545D
:036ED500444D0029
:20192100AF83E582900301F0EFA3F0900301E0FEA3E0FF900300E0FD7C008D027B001ABA49
:20194100FF011B8C007900C3E89AE964808BF063F08095F05046C007C006C005C004126162
:20196100C7AA82D004D005D006D0078DF0EA84E5F02EFAE43FFB8A828B83E0F512C005EC65
:201981002EF8E43FFD88828D83E0F98A828B83F088828D83E512F00CD005809E22AF83E5CA
:2019A10082900303F0EFA3F07F007822C3E2F5F0EF95F0500FEF24CEF582E43402F583EF4D
:2019C100F00F80E6900303E0FEA3E0FF8E828F831262217822E2FF7E008F047D001CBCFF14
:2019E100011D8E027B00C3EA9CEB64808DF063F08095F05042C007C0061261C7AC82D00673
:201A0100D0078FF0EC84E5F024CEFCE43402FD8C828D83E0F513C007EE24CEFAE43402FF65
:201A21008A828F83E0FB8C828D83F08A828F83E513F00ED00780A2227823E224CEF582E4A5
:201A41003402F583E0F582227822E2F5F0E484E5F024CEF582E43402F583E0F582227823B1
:201A6100E2F58222E582900307F0E07823F2227823E2FE7F000EBE00010F78229005FBE288
:201A8100F0E4A3F08E828F83126575AE82AF837823EEF2200F0C78227923E2F5F0E484E56E
:081AA100F0F322A210920F22C3
:201AA900AFF0AE83E582900404F0EEA3F0EFA3F0201102C3227824C3E2F5F074FC95F050D8
:201AC90005121E438045900404E0FDA3E0FEA3E0FF8D828E838FF07824E21264767837E2AE
:201AE900FD08E2FE7F009005E87408F07403A3F0E4A3F078249005EBE2F0E4A3F08D828E0D
:201B0900838FF01263D6121E43D322785EE2FE08E2FFBEFF05BFFF02800C0EBE00010F7806
:201B29005EEEF208EFF2C322AF8275A700C294C2B77586FF7839E2FD08E2FE8F041FEC6004
:201B49001130B1FD8D828E83E0F586A3AD82AE8380E930B1FD74805584FFBF800280F6C283
:201B6900B7D29475A700222011057825E26002D322758231122331E58230E402D322C32210
:201B8900A2A89213C2A81012028006A21392A8D322A21392A8C3227826E2F582227582264B
:201BA9000223317833E2F58222758208122331AF8274014FFEC007C0067582081222FB1578
:201BC90081D0075307FEC0077582081222FB158122758208122331AF8274024FFEC007C0BF
:201BE900067582081222FB1581D0075307FDC0077582081222FB158122E582FF2403501941
:201C0900C00774D8C0E0746EC0E07480C0E0123150158115811581D007C007121BB2D00749
:201C2900C007C00775823E1222FB1581D007EFFE24DF50027E20783B7939E2F308E209F33C
:201C49008E82C007C006121B31D006D007EFC39EFF783BE22EF208E23400F2C007E4C0E074
:201C69007582051222FB1581E4C0E07582061222FB1581C212C2147409C0E075820712225B
:201C8900FB1581125D39AC82AD83D007C007C005C004125D39AA82AB83D004D005D007EA11
:201CA900C39CFAEB9DFB783DC3E2F5F0EA95F008E2F5F0EB95F04003021DCE758203C00761
:201CC900C005C004122331AB82D004D005D007301440EF603DEB30E5397E04BF040050027F
:201CE9008F06783B7939E2F308E209F38E82C007C006C005C004121B31D004D005D006D053
:201D090007EFC39EFF783BE22EF208E23400F2021C95301440EF603DEB20E6397E04BF046D
:201D29000050028F06783B7939E2F308E209F38E82C007C006C005C004121B31D004D00566
:201D4900D006D007EFC39EFF783BE22EF208E23400F2021C95EB30E720121BB27860E2FA51
:201D690008E2FEBAFF05BEFF02800C0ABA00010E7860EAF208EEF2C322758202C007C00590
:201D8900C004122331AB82D004D005D007EB30E105D214021C95201403021C95EB30E103E0
:201DA900021C95EF601D7860E2FE08E2FFBEFF05BFFF02800C0EBE00010F7860EEF208EFC1
:201DC900F2C322D3227860E2FE08E2FFBEFF05BFFF02800C0EBE00010F7860EEF208EFF202
:201DE900C322E582900409F0A2A89216C2A8900407E0FEA3E0FFFDC007C006C00575823A2A
:201E09001222FB1581D006D007C00675823B1222FB1581900409E0FF783F793BE2F308E2E4
:201E290009F37841793DE2F308E209F38F82121C029215A21692A8A21522C2A8C2117824E7
:201E4900E4F2C2127825E4F27413C0E07582051222FB15817440C0E07582061222FB15815E
:201E69001223A5121BB2121BDA7405C0E07582071222FB1581D2A8D322900032125CC875E1
:201E89008201122331AF82BFFF028005BF05005002C322122405758201122331E582FF20C0
:201EA900E006122405921722EF30E102D322C322AC82AD83AEF0FFC3ED941CEE944EEF94A3
:201EC9000E400E74C09C74F79D74BA9E74379F5002C322782BECF208EDF208EEF208EFF23F
:201EE9008C828D838EF0EF122471D322AC82AD83AEF0FFC374F09C74E89D74269EE49F50F0
:201F090002C32278437410F2087427F208E4F208F28C828D838EF0EF1223B1AC82AD83AEB6
:201F2900F0FF782FECF208EDF208EEF208EFF2C00475827A1222FB1581D322E58290040A78
:201F4900F07834E2FFE0FEB50701227834EEF2C0067582791222FB1581C212227834E2F53E
:201F69008222AF82C007E4C0E07582051222FB1581E4C0E07582061222FB15811223A574E3
:201F890015C0E075820B1222FB15817412C0E075820C1222FB158174CCC0E07582091222BA
:201FA900FB1581D007EF249B5010C00774C0C0E07582581222FB1581D007782BE2FB08E2B2
:201FC900FC08E2FD08E28B828C838DF0C007122471782FE2FB08E208E208E2C00375827AAE
:201FE9001222FB1581748DC0E07582301222FB15817442C0E07582331222FB158174CFC03E
:20200900E07582321222FB158174FFC0E07582451222FB158174FFC0E07582461222FB1541
:202029008174FFC0E07582431222FB158174FFC0E07582441222FB1581743CC0E075827C2E
:202049001222FB15817420C0E075827D1222FB15817432C0E075827E1222FB1581783674A3
:2020690010F27836E2FEC0067582341222FB15817428C0E07582351222FB158175820012DB
:202089002222D0077E00EE906EF593FDC39F50060EBE0C0040F0EEFF906EF593FE7833F25F
:2020A900BE200040047E0D80027E2D75820DC007C006122C8BAA82AB83ACF0FDD006D00743
:2020C900EA4B4C4D600B7833E2FD247F4003430602C007C0067582701222FB15817423C0F3
:2020E900E07582711222FB15817444C0E075821D1222FB1581D0077833E2FEBEC80050124F
:20210900C007740AC0E075821E1222FB1581D0078010C0077402C0E075821E1222FB1581D9
:20212900D007785CE2B4433A7E00EE75F00DA42402FC746F35F0FDEF2CF582E43DF583E420
:2021490093FDEE906EE993FCC007C006C0058C821222FB1581D006D0070EBE0C0040CB02CB
:202169002220785CE2B447397E00EE75F00DA4249EFC746F35F0FDEF2CF582E43DF583E4D6
:2021890093FDEE906EE993FCC007C006C0058C821222FB1581D006D0070EBE0C0040CB800D
:2021A90076785CE2B486397E00EE75F00DA4243AFC747035F0FDEF2CF582E43DF583E493F3
:2021C900FDEE906EE993FCC007C006C0058C821222FB1581D006D0070EBE0C0040CB803729
:2021E9007E00EE75F00DA424D6FC747035F0FDEF2CF582E43DF583E493FDEE906EE993FC55
:20220900C007C006C0058C821222FB1581D006D0070EBE0C0040CBD322E58290040BF0E035
:20222900FF7E00EE90717293FDC39F50060EBE080040F090040CEEF0BE080690040C740706
:20224900F090040CE0FF90717293FE7835EEF2C00775826D1222FB1581227835E2F582223B
:20226900AF83E58290040DF0EFA3F090040DE0FEA3E0FF8E047827ECF28F057828EDF22066
:202289001934C007C006C005C00575823C1222FB1581D005D006D007C006C005C00675820F
:2022A9003D1222FB15817582411222FB15817582421222FB158122AF83E58290040FF0EFDB
:2022C900A3F090040FE0FEA3E0FF7829EEF208EFF28F06C00675823F1222FB15817829E21C
:2022E90054FFFE08E25400C0067582401222FB158122AF82A2A89238C2A875A700C294C27F
:20230900B774804FF58630B1FDA8811818868630B1FD74805584FFBF800280F6C2B7D294BC
:2023290075A700A23892A822AF82A2A89238C2A875A700C294C2B78F8630B1FD758600308A
:20234900B1FD74805584FFBF800280F6AF86C2B7D29475A700A23892A88F8222AF8275A77F
:2023690000C294C2B775867F30B7FD8586E0E58124FDF886050886068F041FEC6016C2B711
:2023890075860030B7FD8D828E83E586F0A3AD82AE8380E4C2B7D29475A70022758203124A
:2023A9002331758204022331AF82AE83ADF0FC7847EFF208EEF208EDF208ECF27846E2C3BC
:2023C90013FF18E213FE18E213FB18E213FA7847E22AFA08E23BFB08E23EFE08E23FFF781D
:2023E900439005D9E2F008E2A3F008E2A3F008E2A3F08A828B838EF0EF026270E4C0E07586
:2024090082051222FB1581E4C0E07582061222FB15811223A57481C0E07582071222FB1570
:2024290081900002125C8F308707125CC050F8C322E4C0E07582051222FB15817402C0E00F
:202449007582061222FB1581900014125C8F125CC04013758203122331758204122331E5E9
:202469008230E1EAD322C322AF82AE83ADF0FC784BEFF208EEF208EDF208ECF2784BC3E240
:20248900F5F0E495F008E2F5F0743895F008E2F5F0749C95F008E2F5F0741C95F040030258
:2024A9002566784CE224C8F208E23463F208E234E3F29005D9E4F0742DA3F07431A3F0747C
:2024C90001A3F0784BE2F58208E2F58308E2F5F008E2126270AA82900411EAF09005FFEA1B
:2024E900F0E4A3F0A3F0A3F0902D0075F03174011265DEAC82AD83AEF0FF784BE2C39CF238
:2025090008E29DF208E29EF208E29FF278437471F2087402F208E4F208F2784BE2F5820846
:20252900E2F58308E2F5F008E21223B1784BC0E0E582F208E583F208E5F0F2D0E008F2788A
:202549004BE225E0F208E233F208E233F208E233F2900411E0FF74204FF0022627784CE2D5
:2025690024E4F208E234B1F208E234F1F29005D97480F07496A3F07498A3F0E4A3F0784BCE
:20258900E2F58208E2F58308E2F5F008E2126270AC82900411ECF09005FFECF0E4A3F0A3A1
:2025A900F0A3F090968075F098E41265DEAC82AD83AEF0FF784BE2C39CF208E29DF208E25F
:2025C9009EF208E29FF278437471F2087402F208E4F208F2784BE2F58208E2F58308E2F5B0
:2025E900F008E21223B1784BC0E0E582F208E583F208E5F0F2D0E008F2784BE225E0F208D7
:20260900E233F208E233F208E233F2181818E225E0F208E233F208E233F208E233F29004AA
:2026290011E0FF74404FF0784BE2FC08E2FDC005C004E0C0E07582751222FB1581D004D048
:20264900058D07C005C004C0077582761222FB1581D004D005C0047582771222FB15812294
:20266900D2EC20ECFDAFBE7E00ACBD7D00EC4206ED42078E828F831268E9AA82AB83ACF0D4
:20268900FDC002C003C004C00590FF2E75F0D1743F126124AA82AB83ACF0FDE58124FCF57B
:2026A900818A828B838CF0ED1268F6AE82AF83EE24FFFCEF34FBFD8C828D831268E9AA8266
:2026C900AB83ACF0FD749AC0E014C0E07459C0E07440C0E08A828B838CF0ED126AA2AA823A
:2026E900AB83ACF0FDE58124FCF581E4C0E0C0E074C8C0E07441C0E08A828B838CF0ED1224
:202709006847AA82AB83ACF0FDE58124FCF5818A828B838CF0ED0268F6E582900412F0E052
:20272900FF24FC4068EF2F2F902735730227410227960227960227667418C0E075820D1264
:2027490022FB1581758208122331AF82741F5F4480FFC0077582081222FB158122758208C6
:20276900122331AF82741F5F4420FFC0077582081222FB1581740AC0E075820D1222FB1573
:2027890081E4C0E075820E1222FB158122758208122331AF8253071FC0077582081222FB3B
:2027A9001581740AC0E075820D1222FB15817404C0E075820E1222FB158122C027C0E0C048
:2027C900F0C082C083C007C006C005C004C003C002C001C000C0D075D00075820412233129
:2027E900AF82758203C007122331AE82D007EE30E4497825E2FC7D0074322CFCE43DFDC37F
:2028090074FC9CE49D50030228CF7825E22408FCE43403FDC007C006C004C00575823212C6
:202829002365158115817825E22432F2758226122331E582D006D0077826F2EF30E611D205
:2028490012758226C006122331E582D0067826F2201904EE20E06FEE30E16975824B1223CE
:2028690031E582FF2403405E7825C3E2F5F0EF95F040537825C3E29F50227825E22408FDCA
:20288900E43403FE7825D3E29FF4FCC007C005C0068C8212236515811581D0077824EFF2BB
:2028A900D211E4C0E07582051222FB1581E4C0E07582061222FB15817402C0E0758207127B
:2028C90022FB1581801E785EE2FE08E2FFBEFF05BFFF02800C0EBE00010F785EEEF208EF68
:2028E900F2121E43D0D0D000D001D002D003D004D005D006D007D083D082D0F0D0E0D02722
:01290900329B
:206ED8006F76657273697A6564207061636B6574001C1F2021222324252A6E6F7202040896
:206EF8001013182030406080C0FA2727272E1601050B9A888A8C8D0303030303030303036B
:206F180003030303F4FA7D3F69A77D535E7D5E3F302000010201000101010101020241832A
:206F3800060C37C406895D065D0CAA8912254A4C9C25378625864AAB0001020402010203A4
:206F5800020202040785080E12728A0E18BB0EBBEAFF1D1D1D1E1E1E20304150505050103A
:206F78002041839BC4080C101820314062C58912A69C314A6293C5270003060D1A1E2633E2
:206F98004D669ACDFEFE2B2B2B2E1601050B9A888A8C8D0303030303030303030303030301
:206FB800F4FA7D3F69A77D535E7D5E3F30200001020100010101010102024183060C37C489
:206FD80006895D065D0CAA8912254A4C9C25378625864AAB00010204020102030202020407
:206FF8000785080E12728A0E18BB0EBBEAFF1E1E1E21212121304150505050102041839B18
:20701800C4080C101820314062C58912A69C314A6293C5270003060D1A1E26334D669ACDA6
:20703800FEFE010101010101050B9A888A8C8D03030303030303030303030303D0E8F4FA94
:20705800D3A77D535E7D5E3F30E0602000000001010101010202102041839BC406895D0678
:207078005D0CAA62C58912A69C25378625864AAB000000010101020302020204072344855A
:2070980008398A0E18BB0EBBEAFF1C1C1C1C1C1E20304150505050102041839BC4080C1088
:2070B8001820314062C58912A69C314A6293C5270003060D1A1E26334D669ACDFEFE0101F0
:2070D80001010101050B9A888A8C8D03030303030303030303030303D0E8F4FAD3A77D53A8
:2070F8005E7D5E3F30E0602000000001010101010202102041839BC406895D065D0CAA62AD
:20711800C58912A69C25378625864AAB0000000101010203020202040723448508398A0E55
:2071380018BB0EBBEAFF1E1E1E1E1E1E20304150505050102041839BC4080C10182031400D
:2071580062C58912A69C314A6293C5270003060D1A1E26334D669ACDFEFE010205080B0ED1
:027178001114F0
:20290A0075B7A575B7F122D310AF01C3C0D012290A758F0790000074FFF0758F00D0D0923E
:20292A00AF22D310AF01C3C0D0AE82AF83758F048E828F83E493FF758F008F82D0D092AFDE
:20294A0022D310AF01C3C0D0AE82AF83C007C00612290AD006D007758F058E828F83784F92
:0A296A00E2F0758F00D0D092AF228A
:02F7FE003DC20A
:20297400AF82BF1300400122EF24ED5003022A97EF240A83F582EF241783F583E473B8BAC2
:20299400C4D9DBF007F297979797979797541CF2722929292929292A292A2A2A2A2A2A2A5E
:2029B4002A2A292AC322AF3A8F821241D9921822C3E4953A7401953BE4953CE4953D40031C
:2029D400022A97C322D322C37414953AE4953BE4953CE4953D4003022A97C322C322C37406
:2029F40001953AE4953BE4953CE4953D4003022A97C322C37402953AE4953BE4953CE495FF
:202A14003D4003022A97C32274FFB53A0F74FFB53B0AE4B53C06E4B53D0280028002D322F0
:202A340090044FE0FCA3E0FDA3E0FEA3E0FFECB53A0EEDB53B0AEEB53C06EFB53D02C322C3
:202A540090045BE0FCA3E0FDA3E0FEA3E0FFC3E53A9CE53B9DE53C9EE53D9F402622C3E529
:202A74003A9402E53B9400E53C9400E53D94005012C3E4953A7480953BE4953CE4953D50FC
:202A940002C322D322AF827850E2F53A08E2F53B08E2F53C08E2F53D8F82C007122974D094
:202AB40007400122EF24ED5003022C6AEF240A83F582EF241783F583E4736A6A6A6AF46A14
:202AD400B8CE6A6A6A135A6AF8224A5E362C2C2C2C2A2C2B2B2C2C2C2B2B2C2B2C2C2C2C12
:202AF4007850E2F582C007122222122263AE82D0077850EEF208E4F208F208F2022C6A785C
:202B140054E4F208F208F208F278587464F208E4F208F208F27850E2F58208E2F58308E2B0
:202B3400F5F008E2C007123067AB82AC83ADF0FED0077850EBF208ECF208EDF208EEF278A2
:202B54009CEBF2022C6A7850E2F5F008E242F008E242F008E245F0604278547419F208E491
:202B7400F208F208F2785874DCF208E4F208F208F27850E2F58208E2F58308E2F5F008E23B
:202B9400C007123067AB82AC83ADF0FED0077850EBF208ECF208EDF208EEF2785079A0E2C6
:202BB400F3022C6A7850E2FE900485F07850EEF208E4F208F208F2022C6A7850E2F5F0081C
:202BD400E242F008E242F008E245F024FF921A50047E0180027E007850EEF208E4F208F270
:202BF40008F280727850E2F5F008E242F008E242F008E245F024FF921B50047E0180027E4C
:202C1400007850EEF208E4F208F208F280487850E2FD08E2FE8D828E83C0071222C0D0071D
:202C340080347850E2FD08E2FE8D828E83C0071257BED00780207850E2FD08E2FE8D828E8C
:202C540083C0071257CDD007800C7850E2F582C0071257D9D007EF75F004A42413F582745E
:202C74000435F0F5837850E2F008E2A3F008E2A3F008E2A3F0D322AF82BF130040079000BF
:202C940000E4F5F022EF75F004A42413F582740435F0F583E0FCA3E0FDA3E0FEA3E08C8208
:202CB4008D838EF02285823E85833F90045FE0FCA3E0FD900461E0FB8C018D028B007F007F
:202CD400E82CF8EF3DFFC3E998EA9F5041E9C39CFEEA9DFFEE253EFEEF353FFF89828A83B6
:202CF400C007C006C005C004C003C002C00112292CA882D001D002D003D004D005D006D00E
:202D1400078E828F83E8F009B900B10A80AE853E10853F118B82C002C0011207ECAE82AFD7
:202D340083D001D002740129FCE43AFD8C828D83C007C006C002C00112292CAD82D001D03F
:202D5400028D047D0089828A83C005C00412292CAB82D004D005D006D0077A00EB4205EA2E
:202D74004204EEB50506EFB504028002C322D322858240858341900462E0FCA3E0FD9004CF
:202D940064E0FB8C428D438B027F00EA2CFAEF3DFFC3E5429AE5439F5036E542C39CFEE5C1
:202DB400439DFFEE2540F582EF3541F583784FE0F2854282854383C005C004C00312294B7A
:202DD400D003D004D0050542E4B542BB054380B78540108541118B821207ECAE82AF838E59
:202DF40004784FECF2854282854383C007C00612294BD006D00774012542FCE43543FD7819
:202E14004FEFF28C828D8302294BD310AF01C3C0D0122F2690000012292CE582FF24B34019
:202E340005BF30005004C3022EE390045F7401F0E4A3F0900461EFF0900413122CB94003DC
:202E5400022EE3758200122C8BAC82AD83AEF0FFBC1B0BBD0008BE0005BF00028003C3809F
:202E74006E7F00EF75F004A42413FD740435F0FE8D828E83E0F53AA3E0F53BA3E0F53CA34D
:202E9400E0F53D8F82C007C006C005122974D005D006D0074032EF75F007A4247AFB747189
:202EB40035F0FC8B828C83A3A3A3E493F9A3E493FAA3E493FBA3E493FC8D828E83E9F0EA46
:202ED400A3F0EBA3F0ECA3F00FBF4C004095D333D0D092AF1322D310AF01C3C0D0900413B6
:202EF400741BF0E4A3F0A3F0A3F0122911784F744CF290000012294B9004627401F0E4A3E5
:202F1400F0900464744CF0900413122D84D0D092AF227F00EF75F004A42413FD740435F04C
:202F3400FEEF75F007A4247AFB747135F0FC8B828C83A3A3A3E493F9A3E493FAA3E493FB43
:202F5400A3E493FC8D828E83E9F0EAA3F0EBA3F0ECA3F00FBF130040BB22AF827E008F0395
:202F74007C007D40EE75F007A4247AF582747135F0F583E493F8A3E493F9A3E493FA900544
:202F9400F5E8F0E9A3F0EAA3F08B828C838DF0C007C0061264E1E5828583F0D006D0074589
:202FB400F060060EBE130040B58E822285824474ED2544406EE54475F004A42413F5827486
:202FD4000435F0F583E0F545A3E0F546A3E0F547A3E0F548E54475F007A4247AF5827471B2
:202FF40035F0F583E493FAA3E493FEA3E493FFAC447D00C045C046C047C048C002C006C0AF
:2030140007C004C0057829E2C0E008E2C0E074FFC0E07471C0E07480C0E01207D2E58124BE
:20303400F2F58122AF82BF13005021EF75F007A4247AF582747135F0F583E493FDA3E4935A
:20305400FEA3E493FF8D828E838FF02290000075F00022AC82AD83AEF0FF7854C3E2F5F01C
:20307400EC95F008E2F5F0ED95F008E2F5F0EE95F008E2F5F0EF95F0500D7854E2FC08E214
:20309400FD08E2FE08E2FF7858C3E29C08E29D08E29E08E29F500D7858E2FC08E2FD08E2C9
:0C30B400FE08E2FF8C828D838EF0EF227C
:20717A001172801B00000018728039000000257280400000002F72801900000035728000DC
:20719A000000003D7280000000004172800000000049728000000000537280000000005C97
:2071BA0072800000000065728000000000727280640000007D7280000000008672800000BD
:2071DA00000091728000000000987280010000009F7280FFFF0000AF728000000000B7722E
:2071FA0080020000005B25755D205325753A2025733D256C750A00464F524D4154005345F4
:20721A005249414C5F5350454544004149525F5350454544004E45544944005458504F579A
:20723A00455200454343004D41564C494E4B004F5050524553454E44004D494E5F465245F0
:20725A0051004D41585F46524551004E554D5F4348414E4E454C5300445554595F43594331
:20727A004C45004C42545F52535349004D414E4348455354455200525453435453004E4F77
:20729A0044454944004E4F444544455354494E4154494F4E0053594E43414E59004E4F4450
:0772BA0045434F554E5400FF
:060400000204790227C48A
:01040B0032BE
:0104130032B6
:01041B0032AE
:03042300023A5644
:03042B00025CD19F
:010433003296
:01043B00328E
:010443003286
:01044B00327E
:010453003276
:01045B00326E
:010463003266
:01046B00325E
:03047300025C47E1
:0304E40002047699
:030476000230C091
:2030C000AFC4785CEFF2AFC3785DEFF212318A122E1E4003122F26758201122C8BAC828C50
:2030E00082123C0D12320B758206122C8BAC82900485ECF0758207122C8BAC82AD83AEF0F8
:20310000FFEC4D4E4F24FF921A758205122C8BAC82AD83AEF0FFEC4D4E4F24FF92197582B0
:203120000E122C8BAC82AD83AEF0FFEC4D4E4F24FF921B121E43401574DAC0E07472C0E0DB
:203140007480C0E0123150158115811581024C059072F475F080126971E58124FCFFC00720
:20316000E58124FBF886820886830886F012054A15819072FF75F080126971D2AFD2AC90E3
:2031800003E8125CC843EF1080FE75A700AFD974BF5FF5D975B28F75A90075B64075FF8017
:2031A0007E5E7F01EE24FFFCEF34FFFD8C068D07EC4D70F075EF0675A41075A70F75A410E1
:2031C00075A70075E10143E24043A5F575A70F43A5F5E5A675A6FF75A70075844075B00013
:2031E00075850043B001D29475A700C289125D7775B800D2AFC295D296D2EF75BCF975BAA7
:203200000075BB1B75D10775E34022121E8240157400C0E07473C0E07480C0E0123150157E
:203220008115811581785CE2B44302801C785CE2B447028041785CE2B486028066785CE294
:20324000B491030232CE0232FA786A7490F20874D1F20874CFF2087419F2786E7470F20857
:20326000745EF20874EAF2087419F27876740AF27822F202332F786A7480F20874A1F2087E
:203280007403F208741CF2786E74C0F20874E3F2087412F208741CF27876740AF27822F2EA
:2032A00002332F786AE4F20874A1F20874BCF2087433F2786E7440F20874E3F20874CBF202
:2032C000087433F27876740AF27822F28061786A74C0F20874CAF2087489F2087436F2782F
:2032E0006EE4F2087428F20823F2087437F278767414F278227432F28035786AE4F208F231
:2033000008F208F2786EF208F208F208F27876F2785CE2FA7B00C002C0037418C0E0747350
:20332000C0E07480C0E0123150E58124FBF58175820A122C8BAA82AB83AEF0FFEA4B4E4F38
:20334000601175820A122C8BAC82AD83AEF0FF7822ECF2758208122C8BAC82AD83AEF0FFFC
:20336000EC4D4E4F6037758208122C8BAC82AD83AEF0FF9005FFECF0EDA3F0EEA3F0EFA31A
:20338000F09003E8E4F5F01265DE786AC0E0E582F208E583F208E5F0F2D0E008F2758209EE
:2033A000122C8BAC82AD83AEF0FFEC4D4E4F6037758209122C8BAC82AD83AEF0FF9005FF84
:2033C000ECF0EDA3F0EEA3F0EFA3F09003E8E4F5F01265DE786EC0E0E582F208E583F208AC
:2033E000E5F0F2D0E008F2758204122C8BAC82AD83AEF0FFEC4D4E4F6011758204122C8B92
:20340000AC82AD83AEF0FF7876ECF27876E2FB7D007E007F007854E4F208F208F208F27898
:20342000587414F208E4F208F208F28B828D838EF0EF123067AC827876ECF27822E2FC7DC6
:20344000007E007F0078547401F208E4F208F208F278587432F208E4F208F208F28C828D95
:20346000838EF0EF123067AC82AD83AEF0FF7822ECF2785CE2B44302801E785CE2B447033F
:20348000023527785CE2B486030235B8785CE2B491030236490236D778547480F20874230D
:2034A000F20874ADF2087418F27858E4F208740BF208746BF208741BF2786AE2F58208E2D3
:2034C000F58308E2F5F008E2123067786AC0E0E582F208E583F208E5F0F2D0E008F2785490
:2034E0007480F2087423F20874ADF2087418F27858E4F208740BF208746BF208741BF278BB
:203500006EE2F58208E2F58308E2F5F008E2123067786EC0E0E582F208E583F208E5F0F210
:20352000D0E008F20236F678547480F2087474F20874D2F208741AF278587480F20874CE57
:20354000F2087434F208741DF2786AE2F58208E2F58308E2F5F008E2123067786AC0E0E5E6
:2035600082F208E583F208E5F0F2D0E008F278547480F2087474F20874D2F208741AF27828
:20358000587480F20874CEF2087434F208741DF2786EE2F58208E2F58308E2F5F008E21218
:2035A0003067786EC0E0E582F208E583F208E5F0F2D0E008F20236F678547440F20874B6E8
:2035C000F208749AF2087432F278587440F2087410F20874FDF2087434F2786AE2F582080D
:2035E000E2F58308E2F5F008E2123067786AC0E0E582F208E583F208E5F0F2D0E008F278E1
:20360000547440F20874B6F208749AF2087432F278587440F2087410F20874FDF2087434D5
:20362000F2786EE2F58208E2F58308E2F5F008E2123067786EC0E0E582F208E583F208E567
:20364000F0F2D0E008F20236F67854E4F20874A1F20874BCF2087433F2785874C0F20874C2
:20366000F7F20874BAF2087437F2786AE2F58208E2F58308E2F5F008E2123067786AC0E013
:20368000E582F208E583F208E5F0F2D0E008F27854E4F20874A1F20874BCF2087433F27802
:2036A0005874C0F20874F7F20874BAF2087437F2786EE2F58208E2F58308E2F5F008E212EE
:2036C0003067786EC0E0E582F208E583F208E5F0F2D0E008F2801F785CE2FE7F00C006C041
:2036E000077418C0E07473C0E07480C0E0123150E58124FBF581786E796AE2F5F0E3B5F0D6
:203700001D08E2F5F009E3B5F01408E2F5F009E3B5F00B08E2F5F009E3B5F0028002801A2F
:20372000786A796EE22440F308E2344209F308E2340F09F308E2340009F375820B122C8B1D
:20374000AC82789CECF27F007E007D007854E4F208F208F208F278587464F208E4F208F2CD
:2037600008F28C828F838EF0ED123067AC82789CECF27850ECF208E4F208F208F275820B81
:20378000122A9975820C122C8BAC82AD83AEF0FF78A0ECF2EC60337F007E007D007854745E
:2037A00019F208E4F208F208F2785874DCF208E4F208F208F28C828F838EF0ED123067AC68
:2037C00082AD83AEF0FF78A0ECF278A07950E2F309E4F309F309F375820C122A999005D9D0
:2037E00074E8F07403A3F0E4A3F0A3F0786AE2F58208E2F58308E2F5F008E2126270AC8201
:20380000AD83AEF0FF7850ECF208EDF208EEF208EFF2758208122A999005D974E8F0740378
:20382000A3F0E4A3F0A3F0786EE2F58208E2F58308E2F5F008E2126270AC82AD83AEF0FFB2
:203840007850ECF208EDF208EEF208EFF2758209122A9978227950E2F309E4F309F309F325
:2038600075820A122A99786E796AE3F5F0C3E295F0FC09E3F5F008E295F0FD09E3F5F008A5
:20388000E295F0FE09E3F5F008E295F0FF7822E2FA7B0074022AFAE43BFB9005D9EAF0EBAC
:2038A000A3F0EB3395E0A3F0A3F08C828D838EF0EF1262707872C0E0E582F208E583F20800
:2038C000E5F0F2D0E008F27875E2C313FF18E213FE18E213FB18E213FA786AE22AF208E2EF
:2038E0003BF208E23EF208E23FF2758203122C8B1262217822C3E2F5F0740595F050541236
:2039000061C7AE82AF839005F3EEF0EFA3F09002711264C1AE82E583FF3395E0FDFC7872D9
:2039200090059DE2F008E2A3F008E2A3F008E2A3F08E828F838DF0EC125E30AC82AD83AED5
:20394000F0FF786AE22CF208E23DF208E23EF208E23FF2786AE2F58208E2F58308E2F5F0DC
:2039600008E2121EB97872E2F58208E2F58308E2F5F008E2121EF5758203122C8BAC82AD53
:2039800083AEF0FF782290059DE2F0E4A3F0A3F0A3F08C828D838EF0EF125E30AC828C8265
:2039A000121F44758202122C8BAC828C82121F6B4033758202122C8BAC828C82121F6B40AB
:2039C00024758202122C8BAC828C82121F6B4015742FC0E07473C0E07480C0E012315015CE
:2039E0008115811581121BACAF827850EFF208E4F208F208F2758202122A99758203122C8F
:203A00008B12226975820F122C8B1222C0758212122C8B1257BE758210122C8B1257CD7547
:203A20008211122C8BAC828C821257D97876E2F582122222122263AF827850EFF208E4F2C0
:163A400008F208F2758204122A99758203122C8B12199E0257E0E7
:2072C1004D502053694B20322E36206F6E20484D2D54525000322E36006661696C65642043
:2072E100746F20656E61626C65207265636569766572000A2A2A50414E49432A2A0000721F
:207301006164696F5F696E697469616C697365206661696C65640062616420626F61726471
:20732100206672657175656E637920256400726164696F5F636F6E6669677572652066619A
:05734100696C656400A9
:203A5600C027C0E0C0F0C082C083C007C006C005C004C003C002C001C000C0D075D0001093
:203A76009803023B6EAF99300C0E300D03023B6E8F821212FA023B6E8F82C007121390D036
:203A9600077877E22401FD08E23400FEBD0009BE04067D007E00800B7877E22401FD08E209
:203AB6003400FE7879E2B5050708E2B50602803A7877E2241BF58208E23406F583EFF0784F
:203AD60077E22401FD08E23400FEBD0009BE04067D007E00800B7877E22401FD08E2340014
:203AF600FE7877EDF208EEF2801B7864E2FD08E2FEBDFF05BEFF02800C0DBD00010E7864FD
:203B1600EDF208EEF2301B5078777979C3E3F5F0E295F009E3F5F008E295F0401B7879E2EC
:203B36002400FD08E23404FE7877D3E29DF4B3FDB308E29EF4FE801578797977E3F5F0C31B
:203B5600E295F0FD09E3F5F008E295F0FEC3ED9420EE94005002D2821099028061787B7929
:203B76007DE2F5F0E3B5F00B08E2F5F009E3B5F0028049301B0A308307200C04D21C803E42
:203B9600787DE2241BF58208E2340AF583E0FF787DE22401FD08E23400FEBD0009BE020662
:203BB6007D007E00800B787DE22401FD08E23400FE787DEDF208EEF28F998002D21CD0D060
:203BD600D000D001D002D003D004D005D006D007D083D082D0F0D0E0D02732787B797DE22A
:203BF600F5F0E3B5F00A08E2F5F009E3B5F00122301C03023E7222AF8275A700C2AC7877E8
:203C1600E4F208F2787DF208F2787BF208F2787DF208F2D21CC28EAE89740F5E4420F589E5
:203C36008F821241FFD28E759810C282D2AC22AF82C007123E1EAD82AE83D007C3ED9401C8
:203C5600EE94005002C3228F82123C64D322AF82A2AC9238C2AC787BE22401FD08E2340011
:203C7600FEBD0009BE02067D007E00800B787BE22401FD08E23400FE787DE2B5050708E289
:203C9600B506028044787BE2241BF58208E2340AF583EFF0787BE22401FE08E23400FFBEB0
:203CB6000009BF02067E007F00800B787BE22401FE08E23400FF787BEEF208EFF2301C2455
:203CD600C027123E72D027801B7862E2FE08E2FFBEFF05BFFF02800C0EBE00010F7862EE3E
:203CF600F208EFF2A23892AC22858214858315787FE2700122123E1EAC82AD83787FE2FA56
:203D16007B00C3EC9AED9B501F787FECF27862E2FC08E2FDBCFF05BDFF02800C0CBC00018B
:203D36000D7862ECF208EDF2787FE2FD787BD3E29400F4B3FBB308E29402F4FC8D027F00DC
:203D5600C3EB9AEC9F5008787BE2FFC3E49FFD787BE2241BFE08E2340AFF7C009005E8E5F4
:203D760014F0E515A3F0E4A3F09005EBEDF0E4A3F08E828F838CF0C0051263D6D005ED25BC
:203D960014F514E43515F515787FE2C39DF2D21D10AF02C21D7F00787BE22DF208E23FF270
:203DB600787BC308E294024006787CE224FEF2A21D92AF787FE2603E9005E8E514F0E515B0
:203DD600A3F0E4A3F0787FE2FE7F009005EBEEF0EFA3F0900A1B75F000C007C0061263D69B
:203DF600D006D007D21D10AF02C21D787BEEF208EFF2A21D92AFD21D10AF02C21D301C03D7
:203E1600123E72A21D92AF22A2AC921EC2AC787B797DC3E3F5F0E295F009E3F5F008E29511
:203E3600F0401B787DE22400FE08E23402FF787BD3E29EF4B3FEB308E29FF4FF8015787D65
:203E5600797BE3F5F0C3E295F0FE09E3F5F008E295F0FFA21E92AC8E828F8322301B073065
:203E76008304200C0122C21CD29922A2AC921FC2AC78777979E2F5F0E3B5F00B08E2F5F074
:203E960009E3B5F002803A7879E2241BF58208E23406F583E0FF7879E22401FD08E23400A8
:203EB600FEBD0009BE04067D007E00800B7879E22401FD08E23400FE7879EDF208EEF28091
:203ED600027F00301B4F78777979C3E3F5F0E295F009E3F5F008E295F0401B7879E224004C
:203EF600FD08E23404FE7877D3E29DF4B3FDB308E29EF4FE801578797977E3F5F0C3E29505
:203F1600F0FD09E3F5F008E295F0FEC3E49D74029E5002C282A21F92AC8F8222A2AC922040
:203F3600C2AC7879E2241BF58208E23406F583E0FFA22092AC8F8222A2AC9221C2AC787966
:203F5600E22401FE08E23400FFBE0009BF04067E007F00800B7879E22401FE08E23400FFFE
:203F7600EE241BF582EF3406F583E0FFA22192AC8F8222AF83E582900486F0EFA3F0A2AC60
:203F96009222C2AC900486E0FEA3E0FF7879E22EFE08E23FFF530703EE241BF582EF34061E
:203FB600F583E0FFA22292AC8F8222858216858317124136AC82AD837880E2FA7B00C3EC3E
:203FD6009AED9B5002C3227881EAF208EBF27879D3E29400F4B3FAB308E29404F4FB7881C0
:203FF600C3E2F5F0EA95F008E2F5F0EB95F0501378797981D3E29400F4B3F3B308E294040D
:20401600F409F3AA16AB177F007879E2241BFD08E23406FE9005E8EDF0EEA3F0E4A3F0789E
:20403600819005EBE2F008E2A3F08A828B838FF01263D67881E2FC7880E2C39CF27881E259
:204056002516F51608E23517F517D22310AF02C22378797981E3C5F0E225F0F209E3C5F01A
:2040760008E235F0F27879C308E294044006787AE224FCF2A22392AF7880E26044AD16AED2
:20409600177F009005E8741BF07406A3F0E4A3F07880E2FB7C009005EBEBF0ECA3F08D82BA
:2040B6008E838FF0C004C0031263D6D003D004D22310AF02C2237879EBF208ECF2A223923B
:2040D600AFD22310AF02C223301B4F78777979C3E3F5F0E295F009E3F5F008E295F0401B78
:2040F6007879E22400FE08E23404FF7877D3E29EF4B3FEB308E29FF4FF801578797977E325
:20411600F5F0C3E295F0FE09E3F5F008E295F0FFC3E49E74029F5002C282A22392AFD32252
:20413600A2AC9224C2AC78777979C3E3F5F0E295F009E3F5F008E295F0401778777979E3C9
:20415600F5F0C3E295F0FE09E3F5F008E295F0FF80197879D3E29400F4B3FCB308E2940452
:20417600F4FD7877E22CFE08E23DFFA22492AC8E828F8322124136AE82AF83E4C39EFE742D
:20419600049FC423CEC423541F6ECE541FCE6ECEFF9005F3EEF0EFA3F09000641264C1AEDE
:2041B60082E583A2E7CE33CE33CE54018E8222AF82BF0A0A75820DC007123C64D0078F82B6
:2041D600023C64AF827E00BE0900501BEE75F003A42446F582747335F0F583E493FDEFB5CF
:2041F6000502D3220E80E0C322AF82C0071241D9D00740027F397E00BE0900501BEE75F062
:2042160003A42446F582747335F0F583E493FDEFB5050280030E80E0EE75F003A42446FD0B
:20423600747335F0FE8D828E83A3E493F58DAC8E5304F48D828E83A3A3E4934CF58E9005DC
:16425600FFEFF0E4A3F0A3F0A3F090007DE4F5F01265DE0211A7F2
:1B734600012C02029602042C0009960013600126B001392B08739608E6CB0813
:20746E000000000000000000000000000000000000000000000000000000000000000000FE
:20748E000000000000000000000000000000000000000000000000000000000000000000DE
:2074AE000000000000000000000000000000000000000000000000000000000000000000BE
:2074CE0000000000000000000000000000000000000000000000000000000000000000009E
:20426C007F0078B3E224FFFD08E234FFFE8F037C00C3EB9DEC9E400302432ABF08004003CC
:20428C0002432A7829E2B5030808E2B50403024326EF75F002A4FDAEF0C007ED2475F54D2B
:2042AC00EE3404F54E854D82854E83A3E0FF8F4F7550007829E2FA08E2CA25E0CA33FFEA9E
:2042CC002465FAEF3404FF8A828F83A3E0FF8F51755200854D82854E83E0FF7A00ED246569
:2042EC00F582EE3404F583E0FE7D00C007C04FC050C051C052C007C002C006C005C003C0A2
:20430C00047461C0E07473C0E07480C0E01207D2E58124F3F581D007D0070F02426E789D9B
:20432C00E2FE7F00C007C006122669AC82AD83D006D0077868E2F55108E2F5527866E2F5EB
:20434C004F08E2F5507864E2F54D08E2F54E7862E2F55308E2F554785EE2F55508E2F55638
:20436C007860E2FA08E2FBC006C007C004C005C051C052C04FC050C04DC04EC053C054C03E
:20438C0055C056C002C00378A8E2C0E008E2C0E07829E2C0E008E2C0E07489C0E07473C004
:2043AC00E07480C0E01207D2E58124E9F58178A8E4F208F22278A7E25401600302426C220C
:2043CC00AF827E0078989005F3E2F008E2A3F08F828E831264C1AE82AF837896E22EFE085C
:2043EC00E23F8E82F58322AE82AF83789AC3E29E08E29F5008789AE4F208F2800A789AE2EE
:20440C00C39EF208E29FF2788AC3E2F5F0EE95F008E2F5F0EF95F050030246F37884C3082B
:20442C00E29480400B7829E2F5F008E245F0706F7884E2FC08E2FD788474012CF2E43D0850
:20444C00F278B3900603E2F008E2A3F08C828D83C007C00612664AAC82AD83D006D007785B
:20446C0029E2B5040708E2B50502800280317883E4F278B3900603E2F008E2A3F07884E2CA
:20448C00F58208E2F583C007C00612664AE5828583F0D006D0077884F208E5F0F2804F78D8
:2044AC0084C308E29480504178B3900603E2F008E2A3F0900001C007C00612664AAC82AD4C
:2044CC0083D006D0077884E2C39CFC08E29DFD78B3E224FFFA08E234FFFBECB5020BEDB551
:2044EC00030778837402F2800578837401F2788AD3E29EF4B3FEB308E29FF4FF7883E2B4A2
:20450C000210788EE2FC08E2FD788AECF208EDF28019788CE2FC08E2FD788AECF208EDF2C2
:20452C00C007C006121A70D006D007C007C006121E43D006D0077822C3E2F5F0740195F0CE
:20454C00500B78A1E4F208F278A5F208F27883E260030246EAC006C007789CE2FC7D00781C
:20456C009DE2F5578D58ECC39557FEED9558FFBE640ABF0007D007D0060246EAD007D0068F
:20458C00C006C007C007C006C005C004C049C04AC04BC04C90333375F073743F12612485A5
:2045AC00825985835A85F05BF55CE58124FCF581D004D005D006D007789EE2F58208E2F5F1
:2045CC0083C005C00412692AAA82AB83AEF0FFD004D005C007C006C005C004C002C003C023
:2045EC0006C00790000075F0A0744012612485825D85835E85F05FF560E58124FCF581D043
:20460C0004D005D006D0077891798CE3C5F0E225F0FE09E3C5F008E235F0CE25E0CE33FFEA
:20462C008E828F83C005C00412692AAA82AB83AEF0FFC002C003C006C007855D82855E834B
:20464C00855FF0E560126AA2AA82AB83AEF0FFE58124FCF581D004D005C007C006C005C069
:20466C0004C002C003C006C007855982855A83855BF0E55C12684785824985834A85F04B22
:20468C00F54CE58124FCF581D004D005D006D007789EE4F208F2ECC39557FCED9558FD8C9B
:2046AC00828D831268E9AC82AD83AEF0FFC007C006C004C005C006C007854982854A838534
:2046CC004BF0E54C126491E58124FCF581D006D007E58224FF922EB3922CD007D006789A38
:2046EC00E4F208F20244137883E2B40210C007C006121A49121F44D006D007800EC007C0A9
:20470C0006121A39121F44D006D007788AE2C39EF208E29FF222AF827883E2B40224EF70E5
:20472C00217829E2F5F008E245F070047582012278297993E24400F308E2448009F37582D0
:20474C0000227883E2700302494C102600EF60030247E17884E2F5F008E245F060467893FF
:20476C00E254FFFE08E2547FFF7884E224FFFC08E234FFFD78B3E224FFFA08E234FFFB9055
:20478C000603EAF0EBA3F08C828D83C007C00612664AAC82AD83D006D007EEB50406EFB5E3
:2047AC00050280297884E2F5F008E245F070227893E254FFFE08E2547FFF78B3E224FEFCA4
:2047CC0008E234FFFDEEB50408EFB50504758201227582002278B5E2700302493A7893E230
:2047EC0054FFFE08E2547FFF78AFE2FC08E2FDEEB50406EFB505028002D2287893C308E228
:20480C00948050797893E22401FE08E23400FF78B3E224FFFA08E234FFFB900603EAF0EBE2
:20482C00A3F08E828F83C005C00412664AAE82AF83D004D005ECB50644EDB507407893EC96
:20484C00F208EDF21261C7AE82AF837896E2FA08E2CA25E0CA33FB900603EAF0EBA3F08EBD
:20486C00828F8312664AAE82AF837896E22EFE08E23FFF789AEEF208EFF20249077893EC0C
:20488C00F274804D08F278299005F3E22401F008E23400A3F07896E2F58208E2F5831264CF
:2048AC00C1AE82AF83C007C0061261C7AC82AD8378299005F3E22402F008E23400A3F0785A
:2048CC0096E2F58208E2F583C005C0041264C1AA82AB83D004D005900603EAF0EBA3F08C3B
:2048EC00828D8312664AAC82AD83D006D007EC2EFEED3FFF789AEEF208EFF27896E2FE0839
:20490C00E2CE25E0CE33CE25E0CE33FF900603EEF0EFA3F0789AE2F58208E2F58312664A7A
:20492C00E5828583F0789AF208E5F0F2800E78297993E24400F308E2448009F37582002222
:20494C007883E2705A30260C7893E4F2087480F27582002230271078297993E24400F30825
:20496C00E2448009F3800E7829E2FE08E2FF7893EEF208EFF2102802802178969005F3E26A
:20498C00F008E2A3F09000061264C1E5828583F0789AF208E5F0F2758200227582012275F7
:2049AC00820122122263E582FF24EB4005789DE4F222122669E5828583F0249CFEE5F03421
:2049CC00FFFFC3E49E74808FF063F08095F0E433FD700C789DE26007789DE214F28037C358
:2049EC00740A9E74808FF063F08095F05008789DE2240AF28020C374059E74808FF063F015
:204A0C008095F05008789DE22405F28009ED6006789DE22401F2789CE2FE7F00789DE2FCCB
:204A2C007D00EEC39CFEEF9DFFC3EE9414EF648094805008789C799DE224ECF3227829E2CB
:204A4C00F5F008E245F06003302A0E900595E4F0C22AD210121AA48007900595E02401F039
:204A6C00900595E0FFBF02005004C29580457895E4F2A2299295B229788474FFF208F29055
:204A8C0005E5E4F09005E67410F0E4A3F090047575F0001263AE9005E5E4F09005E6741008
:204AAC00F0E4A3F090046575F0001263AE78A8E4F208F2900595E0FF24FC5029302B0F7591
:204ACC00F005EF84AFF0BF0410121A70800BC210121AA4121A49121F44900595E0FF24C34D
:204AEC00500343EF1078AAE4F208F2302507781FE2FF78A7F2B225900596E02401F0E0FF68
:204B0C00BF04081249AF900596E4F022AE82AF839002BD75F000C007C006126A8AE58285FE
:204B2C0083F02401FCE435F0FD9005E874BDF07402A3F0E4A3F09005EBECF0EDA3F0900540
:204B4C008475F0001263D6D006D00778B1EEF208EFF2D22D22AF82BF02004017EF24EF40CA
:204B6C0012900488E0FEBE520A900489E0FEBE540280237E00C3EE9F501BEE2488F582E423
:204B8C003404F583E0F582C007C0061241C5D006D0070E80E02278AF79B1E2F308E209F314
:204BAC009005E87488F07404A3F0E4A3F09005EBEFF0E4A3F09002BD75F000C0071263D662
:204BCC00D007EF24BDF582E43402F583E4F09002BD7441F0781DEFF2BF041B9002BFE0FFCD
:204BEC00BF49139002C0E0FFBF350B78AC7401F275820002126D02129A125D39AE82AF83A3
:204C0C0078B6EEF208EFF278FF762A78FFB62A02801DC007C00674CDC0E07473C0E074809B
:204C2C00C0E0123150158115811581D006D007781CE2B44102801DC007C00674DAC0E074CD
:204C4C0073C0E07480C0E0123150158115811581D006D007C007C0061214EED006D00778D9
:204C6C00A7E2600FC007C0061243C1D006D00778A7E4F2300A16900485E06010200C0DC237
:204C8C000AC007C006120951D006D007C007C006125D3978B9E582F208E583F2783774888C
:204CAC00F2087404F29000B875F060121AA9D006D0074003024FBB789AE4F208F278B8E2B2
:204CCC00B40400502A78B8E2FC7D00C007C006C004C00574F0C0E07473C0E07480C0E012C4
:204CEC0007D2E58124FBF581D006D007024C177883E2700AD2267893E4F2087480F278B874
:204D0C00E22488FCE43404FDEC24FCFCED34FFFD9005E8ECF0EDA3F0E4A3F09005EB740477
:204D2C00F0E4A3F09000AD75F060C007C0061263D6D006D00778B8E214141414F278AFE21C
:204D4C00F56108E2F56230E73B7895E2B4FF0050117884E2F5F008E245F070067895E224F0
:204D6C0001F27884E4F208F278AFE2FC08E2FD53057F8C82C007C006121A65D006D007D2FA
:204D8C002A024C17302B3F78AEE220E6397895E2B4FF00501E74012561FCE43562FD78841C
:204DAC00E2B5040708E2B50502800280067895E22401F278AFE2FC08E2FD788474012CF216
:204DCC00E43D08F2D22A78AFE2FC08E2FDC3EC9408ED9400507CC006C007EDCC25E0CC33E2
:204DEC00FDEC2465FCED3404FDC006C005C004121BA0AF82D004D005D0067E0078AFE2FACA
:204E0C0008E2CA25E0CA33FBEA2465F582EB3404F583E09005F3F0E4A3F0900007C007C063
:204E2C0006C005C0041264C1AA82AB83D004D005D006D007EA2FFAEB3EC423CAC423541FA9
:204E4C006ACA541FCA6ACAFB8C828D83EAF0D007D00678A8E22401F208E23400F278ADE2D1
:204E6C00FC08E2541FFD4C6003024F0578B8E27003024F0578B8E2B4047178AFE2FC08E2C6
:204E8C00FDC3EC9408ED9400506178B8E21414F278B8E22488FAE43404FB8A828B83E0FA9D
:204EAC00A3E0FB7829E2B5020708E2B5030280028039EDCC25E0CC33FDEC2475FCED3404E8
:204ECC00FD7B009005E87488F07404A3F0E4A3F078B89005EBE2F0E4A3F08C828D838BF0D1
:204EEC00C007C0061263D6D006D00778A8E224FFF208E234FFF2024C1778ADE2FC08E25455
:204F0C001FFD4C7003024C1778ADE2FC08E2541FFD788AECF208EDF278B879B5E27003046A
:204F2C008001E4F375820112472278B9E2FE08E2FF78AEE2C4035401FDBD012278B8C3E2CA
:204F4C00F5F0740195F04003024C1778B8E2F582C007C006124B61D006D007024C1778B8A8
:204F6C00E27003024C1778AEE223540124FF920B78197488F2087404F278B8E2F582C007EA
:204F8C00C0061211EDD006D0075003024C17300C03024C17C29678B8797FE2F3900488C0F5
:204FAC0007C006123CFFD006D007D296024C17C007C006125D3978B9E582F208E583F2D060
:204FCC0006D00778B9E2C39EFC08E29FFD8C828D83C005C0041243F3D004D00578B9E2FE49
:204FEC0008E2FF788C7991E3F5F0C3E295F0FA09E3F5F008E295F0FB788AC3E2F5F0EA957C
:20500C00F008E2F5F0EB95F05003024C177883E2B4022A788E7991E3F5F0C3E295F0FA09DB
:20502C00E3F5F008E295F0FB788AC3E2F5F0EA95F008E2F5F0EB95F05003024C17C006C0BA
:20504C000778B979B6E3F5F0C3E295F0FA09E3F5F008E295F0FB7E007F00C3E49A74809BE9
:20506C00E49E74808FF063F08095F0D007D006501DC007C006C005C004124A49D004D00559
:20508C00D006D00778B979B6E2F308E209F378A0E2700302512CC007C006C005C004121B0D
:2050AC00A6AB82D004D005D006D00778A0C3E2F5F0EB95F0500B78A1E22CF208E23DF2809C
:2050CC003E78A1E4F208F278A5E2F5F008E245F0702DC007C0061261C7AC82AD8378A3902D
:2050EC000603E2F008E2A3F08C828D8312664AE5828583F0D006D00778A5F208E5F0F2780A
:20510C00A379A5E3C5F0E225F0FC09E3C5F008E235F0FD78A1C3E29C08E29D5003024C17F1
:20512C0078B5E4F2758200C007C006124722E582D006D0077003024C17789AE2F5F008E2B2
:20514C0045F06003024C17C007C006121B89D006D007400DC007C006121B70D006D00750E2
:20516C00237896E2FC08E2FD789AECF208EDF27883E26003024C17D2267893E4F2087480DC
:20518C00F2024C177829E2F5F008E245F0600B7895E2B414005003024C17C006C00778291D
:2051AC00E2FC08E2CC25E0CC33FDEC2465FCED3404FD0CBC00010DC007C006C005C00412BD
:2051CC001BA6AB82D004D005D006D0077A007829E2FE08E2CE25E0CE33FFEE2465FEEF342F
:2051EC0004FF8E828F83A3E09005F3F0E4A3F0900003C005C004C003C0021264C1AE82AF55
:20520C0083D002D003D004D005EE2BFEEF3AC313CE13CEC313CE13CE8C828D83EEF0D00794
:20522C00D006302C03024C17788A7996C3E3F5F0E295F009E3F5F008E295F05003024C17CD
:20524C00788AE2FC08E2FD7896E2FA08E2CA25E0CA33FBECC39AFCED9BFD30E7047D0080FE
:20526C00367896E2FB08E2CB25E0CB33FC788AE2C39BFB08E29CFC7898900597E2F008E296
:20528C00A3F08B828C83C007C006125D96AB82AC83D006D0078B05BD05005003024C17EDC1
:2052AC0024FBFD7890C3E29D50047890E2FDC007C006C005124136E5828583F0D005D0065C
:2052CC00D00745F0604230283F7883E2B40139788CE2FB08E2C313CB13CBC313CB13CBFCED
:2052EC00788AC3E29B08E29C5003024C1790048874FFF078B87401F278AEE24420F27888AE
:20530C0074FFF208F20254017883E2B402030253FD202D030253A0C006C00790058475F093
:20532C0000C007C006C005126A8AAB82AC83D005D006D0078D027F00C3EA9BEF9CD007D0A3
:20534C0006405190058475F000C007C006C005126A8AAB8278B8EBF29005E87484F07405BC
:20536C00A3F0E4A3F09005EBEBF0E4A3F090048875F0001263D6D005D006D00778AEE244AB
:20538C0020F278B1E2FB08E2FC7888EBF208ECF2C22D806178177488F2087404F28D82C0B2
:2053AC0007C006C005120CF7E58278B8F2121196D005D006D007922FE433FC78AE13E292F5
:2053CC00E5F278AEE230E52D78B1E2FB08E2FC7888EBF208ECF278ACE2FC78AC04F28C82C7
:2053EC00C007C006C00512126DD005D006D007800478B8E4F278B87990C3E2F5F0E395F087
:20540C005021C007C006C0057405C0E07474C0E07480C0E0123150158115811581D005D08E
:20542C0006D0077883E2B40103D38001C3922FE43378AE13E292E6F2C007C006C005121105
:20544C0093D005D006D007922FE433FC78AE13E292E7F27883E260030255C378B8E2600302
:20546C000255C3BD120050030255C378B3E224FFFC08E234FFFD78AAC3E29C08E29D400357
:20548C000255C37829C3E2940808E2940040030255C37896E2FC08E2CC25E0CC33FD788C82
:2054AC00E2C39CFC08E29DFD788AC3E29C08E29D40030255C378AA7929E2F5F0E3B5F00BDA
:2054CC0008E2F5F009E3B5F0028002800B78AAE22401F208E23400F278B87402F278AAE28A
:2054EC00FC08E2CC25E0CC33FDEC2465FCED3404FD0CBC00010D7829E2FA08E2CA25E0CA84
:20550C0033FBEA2465FAEB3404FB8A828B83A3E08C828D83F078AAE2FC08E2CC25E0CC3361
:20552C00FDEC2465FCED3404FD9005E8ECF0EDA3F0E4A3F09005EB7402F0E4A3F090048806
:20554C0075F000C007C0061263D69005E874AAF0E4A3F07460A3F09005EB7402F0E4A3F03C
:20556C0090048A75F0001263D6D006D00778B87404F278AAE22401F208E23400F278AA7944
:20558C0029E2F5F0E3B5F00B08E2F5F009E3B5F0028002800B78AAE22401F208E23400F2E2
:2055AC0078ADE4F208E254E0F278AEE2547FF278AEE254DFF280537883E2601E78B8E2702A
:2055CC00197883E2B402028003024C177829E2F5F008E245F06003024C1778B8E22404F5AB
:2055EC0082C007C0061243CCAC82AD83D006D007788AE2C39CFC08E29DFD78ADECF208EDA9
:20560C00541FF5F0E254E045F0F27883E2B402267829E2F5F008E245F0701BC007C006127F
:20562C001A5FAD82D006D0077C0043048078AFEDF208ECF2800A78AF7929E3F20809E3F2CC
:20564C0078B8E22488FCE43404FD7B009005E874ADF0E4A3F07460A3F09005EB7404F0E4B8
:20566C00A3F08C828D838BF0C007C0061263D6D006D00778AEE220E52A78B8E2601E78AD81
:20568C00E2FC08E2541FFD4C6012C2967886E2FC08E2FD7888ECF208EDF28007788874FF2E
:2056AC00F208F27883E2700F78B8E27006D228D2278010C227800C7883E2B401067894E290
:2056CC00547FF23028217883E2B4011BC2287896799AE2F308E2F5F0E325E0C5F033C5F09F
:2056EC00F309E5F0F3800E7896E2FC08E2FD789AECF208EDF2789CE2FC7D00789DE2FA7BC7
:20570C0000ECC39AFCED9BFDBC6405BD0002801F78B8E22404F582C007C0061243CCAC82A3
:20572C00AD83D006D007789EE22CF208E23DF278B8E22404FD783F7488F2087404F2788803
:20574C00900407E2F008E2A3F0788A7941E2F308E209F38D82C007C006121DEBD006D00779
:20576C00401078B8E2600BC007C006121199D006D00778A0E2600B78A1E4F208F278A5F2FD
:20578C0008F2C007C006121A39121F44121E43D006D00778B8E27003024C1778ADE2FC0887
:2057AC00E2541FFD4C7003024C17D296024C17A22A22AE82AF8378B374012EF2E43F08F26D
:2057CC0022AE82AF837886EEF208EFF222E58224FF922B22121BACAF829005FFEFF0E4A3E3
:2057EC00F0A3F0A3F09003E8E4F5F01265DEAC82AD83AEF0FF9005D9ECF0EDA3F0EEA3F0A8
:20580C00EFA3F090120075F07AE4126270AC82AD83AEF0FF74082CF563E43DF564E43EF525
:20582C0065E43FF566AA63E564C4CAC4540F6ACA540FCA6ACAFBE565C454F04BFBAE65E54E
:20584C0066C4CEC4540F6ECE540FCE6ECE7898EAF208EBF29005FFEAF0EBA3F0E4A3F0A39D
:20586C00F0902710E4F5F0C003C0021265DE85826785836885F069F56A9005FFE563F0E5F6
:20588C0064A3F0E565A3F0E566A3F0900271E4F5F01265DEAC82AD83AEF0FFD002D003C3C6
:2058AC00E5679CE5689DE5699EE56A9F500A789874012AF2E43B08F278989005F3E2F008AA
:2058CC00E2A3F090000D1264C1E5828583F07896240DF2E435F008F230193478907474F281
:2058EC007899E2F5F018E225E0C5F033C5F0F208E5F0F27898E2FE08E2CE25E0CE33CE25C6
:20590C00E0CE33FF7896E22EF208E23FF28005789074F8F27896E2F56308E2C56325E0C561
:20592C006333F5647891E563F208E564F278989005FFE2F008E2A3F0E4A3F0A3F07890E2FF
:20594C00FA7B007C007D008A828B838CF0ED1265DE85826785836885F069F56A7896E2F5F5
:20596C006B08E2F56CE4F56DF56EE56B2567FCE56C3568FDE56D3569FEE56E356AFFEC2C02
:20598C00F567ED33F568EE33F569EF33F56AAA63AB64E4FEFFEA2567FAEB3568FBEE3569A6
:2059AC00FEEF356AFFE56B2AFCE56C3BFDE56D3EFEE56E3FFF78A0E2603578A37438F208E2
:2059CC007401F2785474A8F2087403F208E4F208F27858ECF208EDF208EEF208EFF28C82BD
:2059EC008D838EF0EF123067AC82AD83AEF0FFC374FF9C741F9DE49EE49F50087CFF7D1F04
:205A0C007E007F00C3EC94A8ED9461EE9400EF940040087CA87D617E007F00788CECF2087A
:205A2C00EDF27898E2F56B08E2F56CE4F56DF56EE56B256BF56BE56C33F56CE56D33F56D29
:205A4C00E56E33F56EE56B256BF56BE56C33F56CE56D33F56DE56E33F56E7896E2F5670808
:205A6C00E2F568E4F569F56AE567256BF56BE568356CF56CE569356DF56DE56A356EF56E08
:205A8C00E56B256BF56BE56C33F56CE56D33F56DE56E33F56EE56B256BF56BE56C33F56CE0
:205AAC00E56D33F56DE56E33F56E7891E2F56308E2F564E4F565F566E563256BF56BE5646A
:205ACC00356CF56CE565356DF56DE566356EF56EE567256BFCE568356CFDE569356DE56A17
:205AEC00356E788EECF208EDF27836E27E0024F6FFEE34FFFE9006107402F0E4A3F08F8252
:205B0C008E831267D6AE82AF8378989005F3E2F008E2A3F08E828F831264C1AE82AF83789D
:205B2C0096E22EF208E23FF2788C7996E3F5F0C3E295F0FE09E3F5F008E295F0FF789890C4
:205B4C000597E2F008E2A3F08E828F83125D96AE82AF837890E2FC7D00C3EC9EED9F500435
:205B6C008C068D078E8212119C78AF74FFF208F27884F208F29005E5E4F09005E67410F079
:205B8C00E4A3F090047575F0001263AE9005E5E4F09005E67410F0E4A3F090046575F000DF
:205BAC001263AE78AC7413F29005957406F0D295C226227891E2C0E008E2C0E07829E2C0BC
:205BCC00E008E2C0E0741AC0E07474C0E07480C0E01207D2E58124F9F581900001125CC85A
:205BEC00788CE2C0E008E2C0E07829E2C0E008E2C0E07433C0E07474C0E07480C0E0120760
:205C0C00D2E58124F9F581900001125CC87890E2FE7F00C006C0077829E2C0E008E2C0E045
:1B5C2C00744DC0E07474C0E07480C0E01207D2E58124F9F581900001025CC845
:207361005B25755D204C2F5220525353493A2025752F257520204C2F52206E6F6973653A2A
:207381002025752F25750A005B25755D20706B74733A202575207478653D25752072786580
:2073A1003D2575207374783D2575207372783D2575206563633D25752F25752074656D708A
:2073C1003D25642064636F3D25750A00737461636B20626C6F776E0A0070646174612063C0
:2073E100616E617279206368616E6765640A00496E76616C6964206C656E6774682E2E2098
:2074010025750A006F76657273697A65642074646D207061636B6574005B25755D207369A1
:207421006C656E63655F706572696F643A2025750A005B25755D2074785F77696E646F770F
:207441005F77696474683A2025750A005B25755D206D61785F646174615F7061636B657426
:0D7461005F6C656E6774683A2025750A003F
:205C4700C027C0E0C0F0C082C083C007C006C005C004C003C002C001C000C0D075D000751B
:205C670091041213DDE51860021518D0D0D000D001D002D003D004D005D006D007D083D09B
:205C870082D0F0D0E0D02732AE82AF83C3EE94F6EF940940047518FF2274092EFEE43FFFFC
:205CA700900597740AF0E4A3F08E828F83125D96AE828E182285821822E518B401009230F8
:205CC70022125C8F125CC050FB22C027C0E0C0F0C082C083C007C006C005C004C003C002AC
:205CE700C001C000C0D075D00075C80474012519F519E4351AF51A301B03123BF1D0D0D007
:205D070000D001D002D003D004D005D006D007D083D082D0F0D0E0D02732AFCDAECCEFB5D8
:205D2700CDF88F05E4FFFCEE4207EC42058F828D8322AE19AF1AC007C006125D21AC82ADEF
:205D470083D006D007EEB519E9EFB51AE5EEC40354F8FF7E00EDC403CCC40354076CCC5418
:205D670007CC6CCCFDEC4206ED42078E828F832275A7007592407593B075910443E6807523
:0F5D8700CA0075CB0075C804D2AD2285CC82222C
:205D9600AF83E582900599F0EFA3F090059BE4F0A3F0900597E0FEA3E0FF7D10900599E0F6
:205DB600FBA3E0FC339231ECCB25E0CB33FC900599EBF0ECA3F090059BE0FBA3E0CB25E0C1
:205DD600CB33FC90059BEBF0ECA3F030311290059BE0FBA3E0FC90059B74014BF0ECA3F0CD
:205DF60090059BE0FBA3E0FCC3EB9EEC9F401D90059BEBC39EF0EC9FA3F0900599E0FBA399
:1A5E1600E0FC90059974014BF0ECA3F0DD8E900599E0FEA3E08E82F5832295
:205E3000AF82AE83ADF0FC9005A1EFF0EEA3F0EDA3F0ECA3F09005A5E4F09005A1E0FCA3FF
:205E5000E0FDA3E0FEA3E0FF7B0090059DE0F56FA3E0F570A3E0F571A3E0F572235401FA34
:205E70007074C003E56F256FF8E57033F9E57133FAE57233FB90059DE8F0E9A3F0EAA3F0FF
:205E9000EBA3F090059DE0F56FA3E0F570A3E0F571A3E0F572C3EC956FED9570EE9571EFBB
:205EB0009572D0035027E572C313F572E57113F571E57013F570E56F13F56F90059DF0E57F
:205ED00070A3F0E571A3F0E572A3F080090B9005A5EBF0025E5A9005A5E0FF9005A1E0FB4F
:205EF000A3E0FCA3E0FDA3E0FE90059DE0F56FA3E0F570A3E0F571A3E0F572C3EB956FEC43
:205F10009570ED9571EE957240179005A1EBC3956FF0EC9570A3F0ED9571A3F0EE9572A3B3
:205F3000F090059DE0FBA3E0FCA3E0FDA3E0C313FEED13FDEC13FCEB13FB90059DF0ECA35C
:205F5000F0EDA3F0EEA3F08F061FEE708E9005A1E0FCA3E0FDA3E0FEA3E08C828D838EF06E
:015F7000220E
:205F7100AF82AE83ADF0FC9005AAEFF0EEA3F0EDA3F0ECA3F09005A9E0FF7E209005AAE09D
:205F9100FAA3E0FBA3E0FCA3E0FD8F1B751C00751D00751E0090059DE51BF0E51CA3F0E57E
:205FB1001DA3F0E51EA3F08A828B838CF0EDC007C006125E30AA82AB83D006D00774302A05
:205FD100FD9005CEF08D04EC24C650079005CE74072DF01EEE24AEFCE43405FD9005CEE070
:205FF1008C828D83F09005AAE0FAA3E0FBA3E0FCA3E0FD9005D9E51BF0E51CA3F0E51DA355
:20601100F0E51EA3F08A828B838CF0EDC007C006126270AA82AB83ACF0FDD006D0079005C0
:20603100AAEAF0EBA3F0ECA3F0EDA3F09005AAE0F5F0A3E042F0A3E042F0A3E045F06003C5
:20605100025F8D9005A6E0FCA3E0FDA3E0FFEE24AEF582E43405F583E0FB8C828D838FF0E4
:20607100126476A3AC82AD830EBE20E28C828D838FF0E4026476AF82AE83ADF0FC9005D394
:20609100EFF0EEA3F0EDA3F0ECA3F09005D3E0FCA3E0FDA3E0FEA3E0FF30E73F9005D2E02C
:2060B100FBBB0A379005CFE0F9A3E0FAA3E0FB89828A838BF0742D1264769005CF7401297E
:2060D100F0E43AA3F0EBA3F09005D3C3E49CF0E49DA3F0E49EA3F0E49FA3F09005D3E0FC72
:2060F100A3E0FDA3E0FEA3E0FF9005CFE0F9A3E0FAA3E0FB9005D2E0F89005A6E9F0EAA3F4
:13611100F0EBA3F09005A9E8F08C828D838EF0EF025F719A
:20612400126242BC0003026A42EF60FA30D502B2D1E583B4FF03026A58E582B4FF03026AFA
:2061440058258340072482400B026A422483145003026A58F582EA8DF0A4A8F0EA8EF0A45D
:2061640028F8E435F0F9EB8DF0A428E935F0F9E433CA8FF0A429F9EA35F0FAEBF88EF0A48A
:2061840029F9EA35F0FAE433FBEC8DF0A429F9EA35F0FAE43BFBE88FF0A42AFAEB35F0FB32
:2061A400E433CCFD8EF0A42AFAEB35F0FBE43CFCED8FF0A42BFBEC35F0FC20E70312637B51
:0361C400026A214B
:2061C700900C1BE0FCA3E0FDA3E0FEA3E0FF9005FFECF0EDA3F0EEA3F0EFA3F0904E6D75EF
:2061E700F0C674411265DEAC82AD83AEF0FF900C1B74392CF074303DA3F0E43EA3F0E43F11
:20620700A3F0900C1BE0A3E0A3E0FEA3E0FF8E048F0553057F8C828D8322AF83E58290055C
:1B622700D7F0EFA3F09005D7E0FEA3E0FF900C1BEEF0EFA3F0E4A3F0A3F02204
:047A6E000100000013
:20624200AA82AB83A2F73392D1F5826002D2F7ACF0E58124F9F8E6FD08E6FE0886F008E6BF
:0E626200A2F73392D5F5836002D2F7AFF02297
:20627000AF82AE83ADF0FC9005DDEFF0EEA3F0EDA3F0ECA3F09005E1E4F0A3F0A3F0A3F03F
:206290009005D9E0FCA3E0FDA3E0FEA3E0FF756F209005DDE0F8A3E0F9A3E0FAA3E0FB3329
:2062B0009232E828F8E933F9EA33FAEB33FB9005DDE8F0E9A3F0EAA3F0EBA3F09005E1E0A6
:2062D000F8A3E0F9A3E0FAA3E0FBE828F8E933F9EA33FAEB33FB9005E1E8F0E9A3F0EAA39B
:2062F000F0EBA3F030321E9005E1E0F8A3E0F9A3E0FAA3E0FB9005E1740148F0E9A3F0EA52
:20631000A3F0EBA3F09005E1E0F8A3E0F9A3E0FAA3E0FBC3E89CE99DEA9EEB9F40319005B2
:20633000E1E8C39CF0E99DA3F0EA9EA3F0EB9FA3F09005DDE0F8A3E0F9A3E0FAA3E0FB9093
:2063500005DD740148F0E9A3F0EAA3F0EBA3F0D56F0280030262A19005DDE0FCA3E0FDA3E8
:0B637000E0FEA3E08C828D838EF02203
:0604A800E478FFF6D8FD28
:20637B007804EC7011E58224F8500AF582E4C9CACBFCD8EF22EC7820058220E713D5820121
:13639B0022C3E933F9EA33FAEB33FBEC33FCD8EA1582222F
:2063AE00AC82AD839005E6E0FEA3E0FFBE000360121F0F9005E5E08C828D83126476A3DE50
:0863CE00FADFF88C828D8322B6
:2063D600AFF0AE83E5829005EDF0EEA3F0EFA3F09005EDE0F56FA3E0F570A3E0F571AA6F4B
:2063F600AB70AC719005E8E0F8A3E0F9A3E0FF9005EBE0F572A3E0F573AD72AE731572740F
:20641600FFB572021573ED4E6020888289838FF0126B65FEA3A882A9838A828B838CF0EE09
:14643600126476A3AA82AB8380CF856F828570838571F02224
:200486007904E94406601B7A0790746E781B75A006E493F2A308B8000205A0D9F4DAF27509
:0204A600A0FFB5
:20644A00AF83E5829005F0F0EFA3F09005F0E0FEA3E0FFBE30004005EE24C650047F00805F
:0C646A00027F01EF3395E08F82F5832262
:1B64760020F71130F6138883A88220F509F6A8837583002280FEF280F5F02225
