:0804D200C200C201C202C20314
:2004E700AF822004058F8202423878027901C3E3F5F0E295F0501A7802E2FE780204F29064
:2005070000BBE0FCA3E0FDEE2CF582E43DF583EFF022AF83E5829000BEF0EFA3F09000BEEB
:20052700E0FEA3E0FF9000BBEEF0EFA3F07802E4F29000BDE07801F2D20422C2047802E2A7
:20054700F58222AD82AE83AFF08D828E838FF0126BD8FC700122BC250280030207B9C2038C
:20056700C202C201C2000DBD00010E8D828E838FF0126BD8FBBB6802800CBB6C10D2000D9C
:20058700BD000A0E8007D2020DBD00010E8D828E838FF0126BD8FBBB63028030BB640280EB
:2005A70018BB6F02802BBB7302800ABB7502800EBB78238010D201801D75080A80187508D9
:2005C7000AD2038011750810D203800A7508008005750808D203300171A8811818E624FD5A
:2005E700FBA8811818A6038B01870909870A09870B1919C005C006C007AA09AB0AAF0B8A76
:20060700828B838FF0126BD8D007D006D00570030207CAC005C006C007AA09AB0AAF0B8AA9
:20062700828B838FF0126BD8FA0509E4B50902050A8A82C007C006C0051204E7D005D0068E
:20064700D007D007D006D00580A9300366300021A8811818E624FCFBA8811818A6038B013F
:20066700870C09870D09870E09870F19191902072030021DA8811818E614F9A8811818A6F8
:200687000187038B0C750D00750E00750F00020720A8811818E624FEFBA8811818A6038B96
:2006A700018702098703198A0C8B0D750E00750F008066300020A8811818E624FCFBA8810F
:2006C7001818A6038B01870C09870D09870E09870F191919804330021EA8811818E614FB95
:2006E700A8811818A6038B01E7FBF50C3395E0F50DF50EF50F8022A8811818E624FEFBA82B
:20070700811818A6038B018702098703198A0CEBF50D3395E0F50EF50FE50870030207A478
:2007270030032F9005A67477F0E4A3F07440A3F09005A9E508F0850C82850D83850EF0E5D1
:200747000FC007C006C005125FE4D005D006D007802D9005CF7477F0E4A3F07440A3F09020
:2007670005D2E508F0850C82850D83850EF0E50FC007C006C0051260FAD005D006D0077966
:2007870077E7FB603E8B82C007C006C005C0011204E7D001D005D006D0070980E4AB0C8B3C
:2007A70082C007C006C0051204E7D005D006D00780118C82C007C006C0051204E7D005D04C
:2007C70006D0070DBD00010E020550E58124FCFFC007E58124FBF886820886830886F01293
:0507E700054A15812206
:2007EC00AF827E007D00AB10AC118F021FEA603B8B828C83E0FAA3AB82AC83ED2DF9ED30EF
:20080C00E714890009E8906DE8936EFDE9906DE893F86AFE80D4890009E8906CE893F86E08
:1B082C00FDE9906CE893F96AFE80BF8D07E4FDFCEE4205EC42078D828F832296
:206CE8000000102120423063408450A560C670E781089129A14AB16BC18CD1ADE1CEF1EF8C
:206D0800123102103273225252B5429472F762D693398318B37BA35AD3BDC39CF3FFE3DE4B
:206D2800246234430420140164E674C744A45485A56AB54B85289509E5EEF5CFC5ACD58D0B
:206D4800365326721611063076D766F6569546B4B75BA77A97198738F7DFE7FED79DC7BCCB
:206D680048C458E5688678A70840186128023823C9CCD9EDE98EF9AF89489969A90AB92B8B
:206D88005AF54AD47AB76A961A710A503A332A12DBFDCBDCFBBFEB9E9B798B58BB3BAB1A4B
:206DA8006CA67C874CE45CC52C223C030C601C41EDAEFD8FCDECDDCDAD2ABD0B8D689D490B
:206DC8007E976EB65ED54EF43E132E321E510E70FF9FEFBEDFDDCFFCBF1BAF3A9F598F78CB
:206DE800918881A9B1CAA1EBD10CC12DF14EE16F108000A130C220E350044025704660678B
:206E080083B99398A3FBB3DAC33DD31CE37FF35E02B1129022F332D242355214627772564A
:206E2800B5EAA5CB95A88589F56EE54FD52CC50D34E224C314A0048174666447542444050A
:206E4800A7DBB7FA879997B8E75FF77EC71DD73C26D336F2069116B06657767646155634CA
:206E6800D94CC96DF90EE92F99C889E9B98AA9AB584448657806682718C008E1388228A38A
:206E8800CB7DDB5CEB3FFB1E8BF99BD8ABBBBB9A4A755A546A377A160AF11AD02AB33A924A
:206EA800FD2EED0FDD6CCD4DBDAAAD8B9DE88DC97C266C075C644C453CA22C831CE00CC10A
:206EC800EF1FFF3ECF5DDF7CAF9BBFBA8FD99FF86E177E364E555E742E933EB20ED11EF0CA
:20084700AF82900489E0F56F7CFF7DFF7406256FFBFA2488F582E43404F583EFF00A7804E9
:200867007401F27804C3E29A5065C0027804E22488F582E43404F583E0FB8C71757200E51F
:2008870071F5736BF570C454F0F57462708D75757600AB707E008B077A00E5756202E576BA
:2008A7006207EEC40354F8CBC403CB6BCB54F8CB6BFEEB6202EE6207E570C4540FFE7B0019
:2008C7006AFCEB6FFD7804E22401F2D00280947406256F2488F582E43404F5838C06EEF0C4
:2008E7007407256F2488F582E43404F5838D04ECF022AF828F6F8F047D007805E27B002C57
:20090700FCEB3DFDAA6F7B00C3EA9CEB64808DF063F08095F05032E56F2488FCE43404FD97
:200927008C828D83E0F570E56F042488FAE43404FB8A828B83E0FE8C828D83F08A828B8318
:20094700E570F0056F056F80AD2290048874FEF09004897409F07803E2FF780304F29004AB
:200967008AEFF090048B7433F090048C7444F0785EE2FE08E2FF90048EEEF0EFA3F0786888
:20098700E2FE08E2FF90049075F000EE1264E9A3EF1264E91241FDAF8290049475F000EFC3
:2009A7001264E97829E2F5F008E245F0703E900467E0FF90049275F000EF1264E9900477DE
:2009C700E0FF90049375F000EF1264E9900468E0FF90049575F000EF1264E9900478E0FFB5
:2009E70090049675F000EF1264E98052900465E0FF90049275F000EF1264E9900475E0FFA8
:200A070090049375F000EF1264E97829E2FE08E2CE25E0CE33FFEE2465FEEF3404FF8E820C
:200A27008F83A3E0FF90049575F000EF1264E9900476E0FF90049675F000EF1264E99004E5
:200A47008D746DF07582B9120847123E91AE82AF83C3EE9411EF9400500122787F7411F223
:060A6700900488023D72BC
:200A6D00AE82AF83E0FDBDFE1A8E828F83A3E0FDBD091074052EFEE43FFF8E828F83E070A4
:200A8D0002D20A22E5827810F21241A97811E582F208E583F27B007C00781374FFF208F247
:200AAD007811C3E2940808E294005003020B878B828C83C004C003123FFC858228D003D038
:200ACD000474FEB528028003020B8774012BFEE43CFF8E828F83C004C003123FFC858228BB
:200AED00D003D004740925285003020B87C003C004AD287E0074082DFAE43EFC7810E2F597
:200B0D00298E2A7806E2FB7F00E529C39BFBE52A9FFFC3EB9AEF64808CF063F08095F0D03A
:200B2D0004D003405574082DFDE43EFE7811C3E29D08E29E404474062BFEE43CFF8E828F3E
:200B4D0083C004C003123FFCAF82D003D004BF460C7412B528077813EBF208ECF2740825EF
:200B6D0028F528AA287F007811E2C39AF208E29FF2EA2BFBEF3CFC020AAD7813E2F58208C1
:200B8D00E2F58322E5829002B8F0E4F52DF52E780A7980E2F39001BC124034780AE2FD7806
:200BAD0006F27815E2FA08E2FB7C009005E874BCF07401A3F0E4A3F09005EBEDF0E4A3F076
:200BCD008A828B838CF0126449780AE4F27815E2F58208E2F583120A6D900485E0FDBD02D5
:200BED000F9002B8E0F582120A91AC82AD8380047CFF7DFF8C2F8D301241A985822B858304
:200C0D002C9002B8E0F53474FFB52F0974FFB5300474018001E4FCC3E52B9408E52C9400A2
:200C2D005003020D64C004123FA5858231D00474FEB5310280067806E2F58222C004123F2D
:200C4D00C1858231D004740925315003020D64C00485313275330074082532FBE43533FEB5
:200C6D00AA347F007806E2FC7D00EAC39CFAEF9DFFC3EA9BEF64808EF063F08095F0D0049E
:200C8D005003020D6474082532FEE43533FFC3E52B9EE52C9F5003020D64EC7028E52DB533
:200CAD002F07E52EB53002801C900006C004123FFCAF82D004BF460D7412B5310874082588
:200CCD0031F531807074082531F5317806E224BCFEE43401FF7880E531F28E828F83C0048C
:200CED0012403478157906E3C5F0E225F0FE08E23400FF7D007806E224BCFAE43401FB9050
:200D0D0005E8EAF0EBA3F0E4A3F09005EBE531F0E4A3F08E828F838DF012644978157906A3
:200D2D00E3C5F0E225F0FE08E23400FF8E828F83120A6DD0047806E22531F2AE317F00E592
:200D4D002BC39EF52BE52C9FF52CEE252DF52DEF352EF52E020C247806E2F58222858235CB
:200D6D001241A9858236858337200816301A652005627806E2605DC3E5369420E53794001B
:200D8D0050527806C3E2F5F0E53595F050087806E4F275820022D205C2087817E2FA08E242
:200DAD00FB7C009005E874BCF07401A3F0E4A3F078069005EBE2F0E4A3F08A828B838CF0B6
:200DCD001264497806E2F5367537007806E4F2AB368B8222C205200903020E997806E2FBB5
:200DED007C008B368C378535388C39C3E5389536E539953750657817E2FA08E2FE7F009083
:200E0D0005E874BCF07401A3F0E4A3F09005EBE538F0E539A3F08A828E838FF0126449E5BB
:200E2D003524BCFEE43401FF9005E8EEF0EFA3F0E4A3F0AE357F009005EBE536C39EF0E5F3
:200E4D00379FA3F09001BC75F000126449E536C395357806F2D206853582227817E2FD08E7
:200E6D00E2FE7F009005E874BCF07401A3F0E4A3F09005EBEBF0ECA3F08D828E838FF0125F
:200E8D006449C209D2067806E2F58222C206AE357F00C3EE9536EF953750048E368F377845
:200EAD0006E4F2E53645377003F58222900485E07053E53645376043AD367880EDF2781767
:200ECD00E2F58208E2F583C005124034D005502B78179005E8E2F008E2A3F0E4A3F0900548
:200EED00EBE536F0E537A3F09001BC75F000C005126449D0057806EDF280047806E4F27888
:200F0D0006E2F58222780AE2B401028003020FA77401B53606E4B5370280028079125DAC1F
:200F2D00AE82AF83780BD3E29EF4B3FEB308E29FF4FF780DC3E29E08E29F50567806E2FF42
:200F4D00780604F2EF24BCFFE43401FEC007C006123EF4AD82D006D0078F828E83EDF07807
:200F6D0017E2FD08E2FE7F009005E874BCF07401A3F0E4A3F078069005EBE2F0E4A3F08D17
:200F8D00828E838FF0126449780AE4F27806E2F5822275820022780AE4F2780AE2700302D8
:200FAD001036780AE2FE7F00C3E5369EE5379F5068125DACAE82AF83780BD3E29EF4B3FE16
:200FCD00B308E29FF4FF780DC3E29E08E29F5045AD367880EDF29001BCC005124034D005C8
:200FED007806EDF27817E2FC08E2FE7F009005E874BCF07401A3F0E4A3F09005EBEDF0E456
:20100D00A3F08C828E838FF0126449780AE4F27806E2F582227582002278177915E2F3086F
:20102D00E209F3853582020B91E536453770030211D7123FA5AF82BFFE0280030211A8745F
:20104D0001B53606E4B537028002802E7806E260030211D7780A7401F2125DACE58285836F
:20106D00F0780BF208E5F0F27808E2FE08E2FF780DEEF208EFF275820022123FC1AF8278C4
:20108D000AEFF2BFF70050208F057E0074082DFDE43EFE780FE2FB7C00C3EB9DEC64808ED1
:2010AD00F063F08095F05033780AE4F27806E2FE780604F2EE24BCFEE43401FDC006C005C1
:2010CD00123EF4AC82D005D0068E828D83ECF0153674FFB53602153702103674082FFF7889
:2010ED000AF27806E260627817E2FC08E2FD7E009005E874BCF07401A3F0E4A3F0780690C9
:20110D0005EBE2F0E4A3F08C828D838EF0126449125DACE5828583F0780BF208E5F0F278F8
:20112D000AE2FD7E0078089005F3E2F008E2A3F08D828E83126534E5828583F0780DF2083B
:20114D00E5F0F27806E2F582227E00C3E5369FE5379E5037125DACE5828583F0780BF2088F
:20116D00E5F0F2780AE2FE7F0078089005F3E2F008E2A3F08E828F83126534E5828583F037
:20118D00780DF208E5F0F27582002278177915E2F308E209F3853582020B917806E2FF785A
:2011AD000604F2EF24BCFFE43401FEC007C006123EF4AD82D006D0078F828E83EDF015364A
:2011CD0074FFB5360215370210367817E2FD08E2FE7F009005E874BCF07401A3F0E4A3F01D
:2011ED0078069005EBE2F0E4A3F08D828E838FF01264497806E2F58222A20522A20622D2DF
:20120D000822E5829002B9F0E0780FF222AF83E5829002BAF0EFA3F09002BAE0FEA3E0FF77
:20122D009005D9EEF0EFA3F0E4A3F0A3F090000075F001E41262E3AC82AD83AEF0FF0CBCD5
:20124D0000090DBD00050EBE00010F7808ECF208EDF222E5829002BCF0200B397819E2FDED
:20126D0008E2FE7F009002BCE0FCFA7B009005E8EDF0EEA3F0EFA3F09005EBEAF0EBA3F026
:20128D009000C075F000C004126449D0047807ECF2C207C3222007379002BCE0FF7807E23E
:2012AD00B5072C7819900608E2F008E2A3F0E4A3F090060BEFF0E4A3F09000C075F0001286
:2012CD00676AE5828583F045F07004C207D322D207C322AF82BF130050259000BD74FCF087
:2012ED009001BCC007120519D0078F82123033120542AF827806EFF2EF6004C205D2092240
:20130D00D20D9000BD74FCF09001BC120519121561120542AF827806EFF2EF6004C205D25A
:20132D000922AE82AF83781BC3E2F5F074FC95F05005781B74FCF29005E8EEF0EFA3F0E4F6
:20134D00A3F0781B9005EBE2F0E4A3F09001BC75F000126449781BE27806F2C205D2092277
:0A04DA00781C7441F278217464F27A
:20136D00AF828F06BE08028021BE0D028005BE7F36801775820A124238781DE224BDF58279
:20138D00E43402F583E4F0D20D22781DE2606675820812423875822012423875820812421B
:2013AD0038781DE214F222781DE2B4100050408F057E008D828E83C006C0051269A9E58236
:2013CD008583F0D005D00645F0602A8D828E83126A62AD828D07781DE2FE781D04F2EE24CB
:2013ED00BDF582E43402F583EFF08F82024238C20C781DE4F222AF82BF2B0280047820E436
:20140D00F27820C3E2F5F0740495F0402C7820E275F003A49014257302144A0214340214C0
:20142D003402143B02144A7820E22401F22278207404F278217464F2227820E4F278217405
:20144D0064F2227821E2603B7821E214F27821E270317820E260087820E2B404268006781C
:20146D00207401F222D20C7820E4F29002BD7441F09002BE7454F09002BFE4F0781D74023E
:20148D00F2D20D22E5812404F5817C007D007E007F00C004C005C006C007781EE224BDF5EE
:2014AD0082E43402F583E0FBFA7F008A828F83C007C006C005C004C0031264BDE58285831E
:2014CD00F0D003D004D005D006D007D007D006D005D00445F0606D9005FFECF0EDA3F0EEB0
:2014ED00A3F0EFA3F090000AE4F5F0C003126651AF82AE83ADF0FCD0038B027B00EA24D027
:20150D00FAEB34FFFBE58124FDF8A60208A603EB3395E008F608F6E58124FDF8E62FF608B2
:20152D00E63EF608E63DF608E63CF6E58124FDF88604088605088606088607781EE22401E1
:20154D00F202149F8C828D838EF0EFC8E58124FCF581C822200D0122781DE2B40200E4330A
:20156D00FF60030215EA9002BDE0FEBE526F9002BEE0FEBE5467781E7403F2781D791EC3BA
:20158D00E2F5F0E395F0501B781EE224BDF582E43402F583E0FEBE2C028008781EE2240153
:2015AD00F280D8781EE224BDF582E43402F583E0FEBE2C1C781EE2FE781E04F2EE24BDF5C8
:2015CD0082E43402F583E4F0121491124B8B800690FFFF124B8B781DE4F2C20D22EF706957
:2015ED009002BDE0FFBF41619002BEE0FFBF54599002BFE0FF6023BF26028023BF2B02800B
:20160D0023BF49028023BF4F028028BF5002801EBF53028027BF5A2E802712165D802A129C
:20162D0018AB8025121989802012169B801B121986801678217464F2C20C800D12181A80BA
:20164D000843EF1080FE12167C781DE4F2C20D227829E2C0E008E2C0E074E8C0E0746EC06A
:20166D00E07480C0E01207D2E58124FBF581227829E2C0E008E2C0E074F1C0E0746EC0E0AD
:20168D007480C0E01207D2E58124FBF581229002C0E0FF6037BF30028032BF31028058BFAD
:2016AD00320302172FBF3303021755BF340302177EBF35030217A7BF36030217B9BF370336
:2016CD000217BCBF38030217BF0218177434C0E07473C0E07480C0E07829E2C0E008E2C0F5
:2016ED00E074FDC0E0746EC0E07480C0E01207D2E58124F8F581227449C0E07473C0E07479
:20170D0080C0E07829E2C0E008E2C0E074FDC0E0746EC0E07480C0E01207D2E58124F8F566
:20172D008122744EC0E0E4C0E07829E2C0E008E2C0E07406C0E0746FC0E07480C0E012071C
:20174D00D2E58124F9F58122785CE2FE7F00C006C0077829E2C0E008E2C0E07406C0E07494
:20176D006FC0E07480C0E01207D2E58124F9F58122785DE2FE7F00C006C0077829E2C0E0CF
:20178D0008E2C0E07406C0E0746FC0E07480C0E01207D2E58124F9F581227F008F82C00724
:2017AD00123033D0070FBF130040F122025C320242DF7829E2F5F008E245F070207829E24F
:2017CD00C0E008E2C0E0740FC0E0746FC0E07480C0E01207D2E58124FBF581802C12582E6E
:2017ED00920EE433FE7F00C006C0077829E2C0E008E2C0E07420C0E0746FC0E07480C0E023
:20180D001207D2E58124F9F5812202167C781E7403F2121491AC82AD83AEF0FFBC13004061
:20182D000302167C781EE224BDF582E43402F583E0FFBF3D028036BF3F618C82122CFEABBB
:20184D0082AD83AEF0FFC003C005C006C0077829E2C0E008E2C0E0742FC0E0746FC0E07430
:20186D0080C0E01207D2E58124F7F58122EC602B781EE22401F2C004121491AB82AD83AEAB
:20188D00F0FFD0047850EBF208EDF208EEF208EFF28C82122B0C500302165D02167C9002D6
:2018AD00C0E0FFBF46028012BF54028053BF55028014BF57028009021983122F9902165DC3
:2018CD00122F5D02165D9005F57439F0746FA3F07480A3F09002C175F000126554E5828555
:2018ED0083F045F0701775B7A575B7F1758F0390F7FE74FFF0758F0043EF1080FE02167C77
:20190D009005F5743FF0746FA3F07480A3F09002C175F000126554E5828583F045F0700504
:20192D00781FE4F2229005F57440F0746FA3F07480A3F09002C175F000126554E5828583EE
:20194D00F045F07007781FE26401F2229005F57446F0746FA3F07480A3F09002C175F00003
:20196D00126554E5828583F045F07007781FE26402F22202167C02167C02167C781E7404C7
:07198D00F212149102167C16
:206EE8005B25755D204F4B0A005B25755D204552524F520A005B25755D2025730A005B25DA
:206F0800755D2025750A005B25755D2053796E633A20426173650A005B25755D2053796E39
:206F2800633A2025750A005B25755D20256C750A00504441544500003D52535349003D54E9
:036F4800444D00B5
:20199400AF83E582900301F0EFA3F0900301E0FEA3E0FF900300E0FD7C008D027B001ABAD6
:2019B400FF011B8C007900C3E89AE964808BF063F08095F05046C007C006C005C0041262EE
:2019D4003AAA82D004D005D006D0078DF0EA84E5F02EFAE43FFB8A828B83E0F512C005EC7F
:2019F4002EF8E43FFD88828D83E0F98A828B83F088828D83E512F00CD005809E22AF83E557
:201A140082900303F0EFA3F07F007822C3E2F5F0EF95F0500FEF24CEF582E43402F583EFD9
:201A3400F00F80E6900303E0FEA3E0FF8E828F831262947822E2FF7E008F047D001CBCFF2D
:201A5400011D8E027B00C3EA9CEB64808DF063F08095F05042C007C00612623AAC82D0068B
:201A7400D0078FF0EC84E5F024CEFCE43402FD8C828D83E0F513C007EE24CEFAE43402FFF2
:201A94008A828F83E0FB8C828D83F08A828F83E513F00ED00780A2227823E224CEF582E432
:201AB4003402F583E0F582227822E2F5F0E484E5F024CEF582E43402F583E0F5822278233E
:201AD400E2F58222E582900307F0E07823F2227823E2FE7F000EBE00010F78229005FBE215
:201AF400F0E4A3F08E828F831265E8AE82AF837823EEF2200F0C78227923E2F5F0E484E588
:081B1400F0F322A210920F224F
:201B1C00AFF0AE83E582900404F0EEA3F0EFA3F0201102C3227824C3E2F5F074FC95F05064
:201B3C0005121EB68045900404E0FDA3E0FEA3E0FF8D828E838FF07824E21264E97837E254
:201B5C00FD08E2FE7F009005E87408F07403A3F0E4A3F078249005EBE2F0E4A3F08D828E99
:201B7C00838FF0126449121EB6D322785EE2FE08E2FFBEFF05BFFF02800C0EBE00010F78AC
:201B9C005EEEF208EFF2C322AF8275A700C294C2B77586FF7839E2FD08E2FE8F041FEC6091
:201BBC001130B1FD8D828E83E0F586A3AD82AE8380E930B1FD74805584FFBF800280F6C210
:201BDC00B7D29475A700222011057825E26002D3227582311223A4E58230E402D322C3222A
:201BFC00A2A89213C2A81012028006A21392A8D322A21392A8C3227826E2F58222758226D8
:201C1C000223A47833E2F582227582081223A4AF8274014FFEC007C00675820812236E15AA
:201C3C0081D0075307FEC00775820812236E1581227582081223A4AF8274024FFEC007C064
:201C5C000675820812236E1581D0075307FDC00775820812236E158122E582FF24035019E5
:201C7C00C007744BC0E0746FC0E07480C0E01231C3158115811581D007C007121C25D0077B
:201C9C00C007C00775823E12236E1581D007EFFE24DF50027E20783B7939E2F308E209F355
:201CBC008E82C007C006121BA4D006D007EFC39EFF783BE22EF208E23400F2C007E4C0E08E
:201CDC0075820512236E1581E4C0E075820612236E1581C212C2147409C0E07582071223FF
:201CFC006E1581125DACAC82AD83D007C007C005C004125DACAA82AB83D004D005D007EA45
:201D1C00C39CFAEB9DFB783DC3E2F5F0EA95F008E2F5F0EB95F04003021E41758203C00779
:201D3C00C005C0041223A4AB82D004D005D007301440EF603DEB30E5397E04BF0400500298
:201D5C008F06783B7939E2F308E209F38E82C007C006C005C004121BA4D004D005D006D06C
:201D7C0007EFC39EFF783BE22EF208E23400F2021D08301440EF603DEB20E6397E04BF0486
:201D9C000050028F06783B7939E2F308E209F38E82C007C006C005C004121BA4D004D00580
:201DBC00D006D007EFC39EFF783BE22EF208E23400F2021D08EB30E720121C257860E2FAF6
:201DDC0008E2FEBAFF05BEFF02800C0ABA00010E7860EAF208EEF2C322758202C007C0051D
:201DFC00C0041223A4AB82D004D005D007EB30E105D214021D08201403021D08EB30E10312
:201E1C00021D08EF601D7860E2FE08E2FFBEFF05BFFF02800C0EBE00010F7860EEF208EFD9
:201E3C00F2C322D3227860E2FE08E2FFBEFF05BFFF02800C0EBE00010F7860EEF208EFF28E
:201E5C00C322E582900409F0A2A89216C2A8900407E0FEA3E0FFFDC007C006C00575823AB6
:201E7C0012236E1581D006D007C00675823B12236E1581900409E0FF783F793BE2F308E289
:201E9C0009F37841793DE2F308E209F38F82121C759215A21692A8A21522C2A8C211782401
:201EBC00E4F2C2127825E4F27413C0E075820512236E15817440C0E075820612236E158103
:201EDC00122418121C25121C4D7405C0E075820712236E1581D2A8D322900032125D3B752A
:201EFC0082011223A4AF82BFFF028005BF05005002C3221224787582011223A4E582FF20F4
:201F1C00E006122478921722EF30E102D322C322AC82AD83AEF0FFC3ED941CEE944EEF94BC
:201F3C000E400E74C09C74F79D74BA9E74379F5002C322782BECF208EDF208EEF208EFF2CB
:201F5C008C828D838EF0EF1224E4D322AC82AD83AEF0FFC374F09C74E89D74269EE49F5009
:201F7C0002C32278437410F2087427F208E4F208F28C828D838EF0EF122424AC82AD83AECF
:201F9C00F0FF782FECF208EDF208EEF208EFF2C00475827A12236E1581D322E58290040A91
:201FBC00F07834E2FFE0FEB50701227834EEF2C00675827912236E1581C212227834E2F557
:201FDC008222AF82C007E4C0E075820512236E1581E4C0E075820612236E15811224187414
:201FFC0015C0E075820B12236E15817412C0E075820C12236E158174CCC0E075820912235E
:20201C006E1581D007EF249B5010C00774C0C0E075825812236E1581D007782BE2FB08E257
:20203C00FC08E2FD08E28B828C838DF0C0071224E4782FE2FB08E208E208E2C00375827AC7
:20205C0012236E1581748DC0E075823012236E15817442C0E075823312236E158174CFC06E
:20207C00E075823212236E158174FFC0E075824512236E158174FFC0E075824612236E1572
:20209C008174FFC0E075824312236E158174FFC0E075824412236E1581743CC0E075827CD3
:2020BC0012236E15817420C0E075827D12236E15817432C0E075827E12236E1581783674D4
:2020DC0010F27836E2FEC00675823412236E15817428C0E075823512236E15817582001280
:2020FC002295D0077E00EE906F6893FDC39F50060EBE0C0040F0EEFF906F6893FE7833F291
:20211C00BE200040047E0D80027E2D75820DC007C006122CFEAA82AB83ACF0FDD006D0075C
:20213C00EA4B4C4D600B7833E2FD247F4003430602C007C00675827012236E15817423C00B
:20215C00E075827112236E15817444C0E075821D12236E1581D0077833E2FEBEC8005012F3
:20217C00C007740AC0E075821E12236E1581D0078010C0077402C0E075821E12236E15817E
:20219C00D007785CE2B4433A7E00EE75F00DA42475FC746F35F0FDEF2CF582E43DF583E43A
:2021BC0093FDEE906F5C93FCC007C006C0058C8212236E1581D006D0070EBE0C0040CB0270
:2021DC002293785CE2B447397E00EE75F00DA42411FC747035F0FDEF2CF582E43DF583E47C
:2021FC0093FDEE906F5C93FCC007C006C0058C8212236E1581D006D0070EBE0C0040CB80B2
:20221C0076785CE2B486397E00EE75F00DA424ADFC747035F0FDEF2CF582E43DF583E4930C
:20223C00FDEE906F5C93FCC007C006C0058C8212236E1581D006D0070EBE0C0040CB8037CD
:20225C007E00EE75F00DA42449FC747135F0FDEF2CF582E43DF583E493FDEE906F5C93FCF9
:20227C00C007C006C0058C8212236E1581D006D0070EBE0C0040CBD322E58290040BF0E04E
:20229C00FF7E00EE9071E593FDC39F50060EBE080040F090040CEEF0BE080690040C740720
:2022BC00F090040CE0FF9071E593FE7835EEF2C00775826D12236E1581227835E2F58222E1
:2022DC00AF83E58290040DF0EFA3F090040DE0FEA3E0FF8E047827ECF28F057828EDF220F3
:2022FC001934C007C006C005C00575823C12236E1581D005D006D007C006C005C006758228
:20231C003D12236E158175824112236E158175824212236E158122AF83E58290040FF0EF0B
:20233C00A3F090040FE0FEA3E0FF7829EEF208EFF28F06C00675823F12236E15817829E234
:20235C0054FFFE08E25400C00675824012236E158122AF82A2A89238C2A875A700C294C297
:20237C00B774804FF58630B1FDA8811818868630B1FD74805584FFBF800280F6C2B7D29449
:20239C0075A700A23892A822AF82A2A89238C2A875A700C294C2B78F8630B1FD7586003017
:2023BC00B1FD74805584FFBF800280F6AF86C2B7D29475A700A23892A88F8222AF8275A70C
:2023DC0000C294C2B775867F30B7FD8586E0E58124FDF886050886068F041FEC6016C2B79E
:2023FC0075860030B7FD8D828E83E586F0A3AD82AE8380E4C2B7D29475A7002275820312D7
:20241C0023A47582040223A4AF82AE83ADF0FC7847EFF208EEF208EDF208ECF27846E2C362
:20243C0013FF18E213FE18E213FB18E213FA7847E22AFA08E23BFB08E23EFE08E23FFF78A9
:20245C00439005D9E2F008E2A3F008E2A3F008E2A3F08A828B838EF0EF0262E3E4C0E0759F
:20247C00820512236E1581E4C0E075820612236E15811224187481C0E075820712236E152D
:20249C0081900002125D02308707125D3350F8C322E4C0E075820512236E15817402C0E040
:2024BC0075820612236E1581900014125D02125D3340137582031223A47582041223A4E534
:2024DC008230E1EAD322C322AF82AE83ADF0FC784BEFF208EEF208EDF208ECF2784BC3E2CD
:2024FC00F5F0E495F008E2F5F0743895F008E2F5F0749C95F008E2F5F0741C95F0400302E5
:20251C0025D9784CE224C8F208E23463F208E234E3F29005D9E4F0742DA3F07431A3F07495
:20253C0001A3F0784BE2F58208E2F58308E2F5F008E21262E3AA82900411EAF09005FFEA34
:20255C00F0E4A3F0A3F0A3F0902D0075F0317401126651AC82AD83AEF0FF784BE2C39CF250
:20257C0008E29DF208E29EF208E29FF278437471F2087402F208E4F208F2784BE2F58208D3
:20259C00E2F58308E2F5F008E2122424784BC0E0E582F208E583F208E5F0F2D0E008F278A3
:2025BC004BE225E0F208E233F208E233F208E233F2900411E0FF74204FF002269A784CE2EF
:2025DC0024E4F208E234B1F208E234F1F29005D97480F07496A3F07498A3F0E4A3F0784B5B
:2025FC00E2F58208E2F58308E2F5F008E21262E3AC82900411ECF09005FFECF0E4A3F0A3BB
:20261C00F0A3F090968075F098E4126651AC82AD83AEF0FF784BE2C39CF208E29DF208E277
:20263C009EF208E29FF278437471F2087402F208E4F208F2784BE2F58208E2F58308E2F53C
:20265C00F008E2122424784BC0E0E582F208E583F208E5F0F2D0E008F2784BE225E0F208EF
:20267C00E233F208E233F208E233F2181818E225E0F208E233F208E233F208E233F2900437
:20269C0011E0FF74404FF0784BE2FC08E2FDC005C004E0C0E075827512236E1581D004D061
:2026BC00058D07C005C004C00775827612236E1581D004D005C00475827712236E15812239
:2026DC00D2EC20ECFDAFBE7E00ACBD7D00EC4206ED42078E828F8312695CAA82AB83ACF0ED
:2026FC00FDC002C003C004C00590FF2E75F0D1743F126197AA82AB83ACF0FDE58124FCF595
:20271C00818A828B838CF0ED126969AE82AF83EE24FFFCEF34FBFD8C828D8312695CAA820A
:20273C00AB83ACF0FD749AC0E014C0E07459C0E07440C0E08A828B838CF0ED126B15AA8252
:20275C00AB83ACF0FDE58124FCF581E4C0E0C0E074C8C0E07441C0E08A828B838CF0ED12B0
:20277C0068BAAA82AB83ACF0FDE58124FCF5818A828B838CF0ED026969E582900412F0E0F8
:20279C00FF24FC4068EF2F2F9027A8730227B40228090228090227D97418C0E075820D12B0
:2027BC00236E15817582081223A4AF82741F5F4480FFC00775820812236E158122758208F8
:2027DC001223A4AF82741F5F4420FFC00775820812236E1581740AC0E075820D12236E15A5
:2027FC0081E4C0E075820E12236E1581227582081223A4AF8253071FC00775820812236E6D
:20281C001581740AC0E075820D12236E15817404C0E075820E12236E158122C027C0E0C0EC
:20283C00F0C082C083C007C006C005C004C003C002C001C000C0D075D0007582041223A442
:20285C00AF82758203C0071223A4AE82D007EE30E4497825E2FC7D0074322CFCE43DFDC398
:20287C0074FC9CE49D50030229427825E22408FCE43403FDC007C006C004C00575823212DF
:20289C0023D8158115817825E22432F27582261223A4E582D006D0077826F2EF30E611D2AC
:2028BC0012758226C0061223A4E582D0067826F2201904EE20E06FEE30E16975824B1223E8
:2028DC00A4E582FF2403405E7825C3E2F5F0EF95F040537825C3E29F50227825E22408FDE4
:2028FC00E43403FE7825D3E29FF4FCC007C005C0068C821223D815811581D0077824EFF2D5
:20291C00D211E4C0E075820512236E1581E4C0E075820612236E15817402C0E0758207121F
:20293C00236E1581801E785EE2FE08E2FFBEFF05BFFF02800C0EBE00010F785EEEF208EF80
:20295C00F2121EB6D0D0D000D001D002D003D004D005D006D007D083D082D0F0D0E0D0273B
:01297C003228
:206F4B006F76657273697A6564207061636B6574001C1F2021222324252A6E6F7202040822
:206F6B001013182030406080C0FA2727272E1601050B9A888A8C8D030303030303030303F7
:206F8B0003030303F4FA7D3F69A77D535E7D5E3F30200001020100010101010102024183B7
:206FAB00060C37C406895D065D0CAA8912254A4C9C25378625864AAB000102040201020331
:206FCB00020202040785080E12728A0E18BB0EBBEAFF1D1D1D1E1E1E2030415050505010C7
:206FEB002041839BC4080C101820314062C58912A69C314A6293C5270003060D1A1E26336F
:20700B004D669ACDFEFE2B2B2B2E1601050B9A888A8C8D030303030303030303030303038D
:20702B00F4FA7D3F69A77D535E7D5E3F30200001020100010101010102024183060C37C415
:20704B0006895D065D0CAA8912254A4C9C25378625864AAB00010204020102030202020493
:20706B000785080E12728A0E18BB0EBBEAFF1E1E1E21212121304150505050102041839BA4
:20708B00C4080C101820314062C58912A69C314A6293C5270003060D1A1E26334D669ACD33
:2070AB00FEFE010101010101050B9A888A8C8D03030303030303030303030303D0E8F4FA21
:2070CB00D3A77D535E7D5E3F30E0602000000001010101010202102041839BC406895D0605
:2070EB005D0CAA62C58912A69C25378625864AAB00000001010102030202020407234485E7
:20710B0008398A0E18BB0EBBEAFF1C1C1C1C1C1E20304150505050102041839BC4080C1014
:20712B001820314062C58912A69C314A6293C5270003060D1A1E26334D669ACDFEFE01017C
:20714B0001010101050B9A888A8C8D03030303030303030303030303D0E8F4FAD3A77D5334
:20716B005E7D5E3F30E0602000000001010101010202102041839BC406895D065D0CAA6239
:20718B00C58912A69C25378625864AAB0000000101010203020202040723448508398A0EE2
:2071AB0018BB0EBBEAFF1E1E1E1E1E1E20304150505050102041839BC4080C10182031409A
:2071CB0062C58912A69C314A6293C5270003060D1A1E26334D669ACDFEFE010205080B0E5E
:0271EB0011147D
:20297D0075B7A575B7F122D310AF01C3C0D012297D758F0790000074FFF0758F00D0D09258
:20299D00AF22D310AF01C3C0D0AE82AF83758F048E828F83E493FF758F008F82D0D092AF6B
:2029BD0022D310AF01C3C0D0AE82AF83C007C00612297DD006D007758F058E828F83784FAC
:0A29DD00E2F0758F00D0D092AF2217
:02F7FE003DC20A
:2029E700AF82BF1300400122EF24ED5003022B0AEF240A83F582EF241783F583E4732B2DF5
:202A0700374C4E637A650A0A0A0A0A0A0AC78F65E52A2A2A2A2A2A2A2A2B2B2B2B2B2B2B39
:202A27002A2A2A2AC322AF3A8F8212424C921822C3E4953A7401953BE4953CE4953D400333
:202A4700022B0AC322D322C37414953AE4953BE4953CE4953D4003022B0AC322C322C374AA
:202A670001953AE4953BE4953CE4953D4003022B0AC322C37402953AE4953BE4953CE49517
:202A87003D4003022B0AC32274FFB53A0F74FFB53B0AE4B53C06E4B53D0280028002D32209
:202AA70090044FE0FCA3E0FDA3E0FEA3E0FFECB53A0EEDB53B0AEEB53C06EFB53D02C32250
:202AC70090045BE0FCA3E0FDA3E0FEA3E0FFC3E53A9CE53B9DE53C9EE53D9F402622C3E5B6
:202AE7003A9402E53B9400E53C9400E53D94005012C3E4953A7480953BE4953CE4953D5089
:202B070002C322D322AF827850E2F53A08E2F53B08E2F53C08E2F53D8F82C0071229E7D0AD
:202B270007400122EF24ED5003022CDDEF240A83F582EF241783F583E473DDDDDDDD67DD7B
:202B47002B41DDDDDD86CDDD6B95BDD1A92C2C2C2C2B2C2C2C2C2C2C2B2B2C2C2C2C2C2CC3
:202B67007850E2F582C0071222951222D6AE82D0077850EEF208E4F208F208F2022CDD788F
:202B870054E4F208F208F208F278587464F208E4F208F208F27850E2F58208E2F58308E23D
:202BA700F5F008E2C0071230DAAB82AC83ADF0FED0077850EBF208ECF208EDF208EEF278BC
:202BC7009CEBF2022CDD7850E2F5F008E242F008E242F008E245F0604278547419F208E4AB
:202BE700F208F208F2785874DCF208E4F208F208F27850E2F58208E2F58308E2F5F008E2C8
:202C0700C0071230DAAB82AC83ADF0FED0077850EBF208ECF208EDF208EEF2785079A0E2DF
:202C2700F3022CDD7850E2FE900485F07850EEF208E4F208F208F2022CDD7850E2F5F008C2
:202C4700E242F008E242F008E245F024FF921A50047E0180027E007850EEF208E4F208F2FC
:202C670008F280727850E2F5F008E242F008E242F008E245F024FF921B50047E0180027ED8
:202C8700007850EEF208E4F208F208F280487850E2FD08E2FE8D828E83C007122333D00736
:202CA70080347850E2FD08E2FE8D828E83C007125831D00780207850E2FD08E2FE8D828EA5
:202CC70083C007125840D007800C7850E2F582C00712584CD007EF75F004A42413F5827403
:202CE7000435F0F5837850E2F008E2A3F008E2A3F008E2A3F0D322AF82BF1300400790004C
:202D070000E4F5F022EF75F004A42413F582740435F0F583E0FCA3E0FDA3E0FEA3E08C8294
:202D27008D838EF02285823E85833F90045FE0FCA3E0FD900461E0FB8C018D028B007F000B
:202D4700E82CF8EF3DFFC3E998EA9F5041E9C39CFEEA9DFFEE253EFEEF353FFF89828A8342
:202D6700C007C006C005C004C003C002C00112299FA882D001D002D003D004D005D006D027
:202D8700078E828F83E8F009B900B10A80AE853E10853F118B82C002C0011207ECAE82AF64
:202DA70083D001D002740129FCE43AFD8C828D83C007C006C002C00112299FAD82D001D059
:202DC700028D047D0089828A83C005C00412299FAB82D004D005D006D0077A00EB4205EA48
:202DE7004204EEB50506EFB504028002C322D322858240858341900462E0FCA3E0FD90045C
:202E070064E0FB8C428D438B027F00EA2CFAEF3DFFC3E5429AE5439F5036E542C39CFEE54D
:202E2700439DFFEE2540F582EF3541F583784FE0F2854282854383C005C004C0031229BE93
:202E4700D003D004D0050542E4B542BB054380B78540108541118B821207ECAE82AF838EE5
:202E670004784FECF2854282854383C007C0061229BED006D00774012542FCE43543FD7832
:202E87004FEFF28C828D830229BED310AF01C3C0D0122F9990000012299FE582FF24B3404D
:202EA70005BF30005004C3022F5690045F7401F0E4A3F0900461EFF0900413122D2C400381
:202EC700022F56758200122CFEAC82AD83AEF0FFBC1B0BBD0008BE0005BF00028003C38045
:202EE7006E7F00EF75F004A42413FD740435F0FE8D828E83E0F53AA3E0F53BA3E0F53CA3DA
:202F0700E0F53D8F82C007C006C0051229E7D005D006D0074032EF75F007A424EDFB74712F
:202F270035F0FC8B828C83A3A3A3E493F9A3E493FAA3E493FBA3E493FC8D828E83E9F0EAD2
:202F4700A3F0EBA3F0ECA3F00FBF4C004095D333D0D092AF1322D310AF01C3C0D090041342
:202F6700741BF0E4A3F0A3F0A3F0122984784F744CF29000001229BE9004627401F0E4A38B
:202F8700F0900464744CF0900413122DF7D0D092AF227F00EF75F004A42413FD740435F066
:202FA700FEEF75F007A424EDFB747135F0FC8B828C83A3A3A3E493F9A3E493FAA3E493FB5D
:202FC700A3E493FC8D828E83E9F0EAA3F0EBA3F0ECA3F00FBF130040BB22AF827E008F0322
:202FE7007C007D40EE75F007A424EDF582747135F0F583E493F8A3E493F9A3E493FA90055E
:20300700F5E8F0E9A3F0EAA3F08B828C838DF0C007C006126554E5828583F0D006D00745A1
:20302700F060060EBE130040B58E822285824474ED2544406EE54475F004A42413F5827412
:203047000435F0F583E0F545A3E0F546A3E0F547A3E0F548E54475F007A424EDF5827471CB
:2030670035F0F583E493FAA3E493FEA3E493FFAC447D00C045C046C047C048C002C006C03B
:2030870007C004C0057829E2C0E008E2C0E07472C0E07472C0E07480C0E01207D2E58124D7
:2030A700F2F58122AF82BF13005021EF75F007A424EDF582747135F0F583E493FDA3E49374
:2030C700FEA3E493FF8D828E838FF02290000075F00022AC82AD83AEF0FF7854C3E2F5F0A9
:2030E700EC95F008E2F5F0ED95F008E2F5F0EE95F008E2F5F0EF95F0500D7854E2FC08E2A1
:20310700FD08E2FE08E2FF7858C3E29C08E29D08E29E08E29F500D7858E2FC08E2FD08E255
:0C312700FE08E2FF8C828D838EF0EF2208
:2071ED008472801B0000008B72803900000098728040000000A2728019000000A87280002A
:20720D00000000B0728000000000B4728000000000BC728000000000C6728000000000CFE4
:20722D00728000000000D8728000000000E5728064000000F0728000000000F9728000007D
:20724D000000047380000000000B738001000000127380FFFF0000227380000000002A7376
:20726D0080020000005B25755D205325753A2025733D256C750A00464F524D415400534580
:20728D005249414C5F5350454544004149525F5350454544004E45544944005458504F5727
:2072AD00455200454343004D41564C494E4B004F5050524553454E44004D494E5F4652457D
:2072CD0051004D41585F46524551004E554D5F4348414E4E454C5300445554595F435943BE
:2072ED004C45004C42545F52535349004D414E4348455354455200525453435453004E4F04
:20730D0044454944004E4F444544455354494E4154494F4E0053594E43414E59004E4F44DC
:07732D0045434F554E54008B
:0604000002047902283716
:01040B0032BE
:0104130032B6
:01041B0032AE
:03042300023AC9D1
:03042B00025D442B
:010433003296
:01043B00328E
:010443003286
:01044B00327E
:010453003276
:01045B00326E
:010463003266
:01046B00325E
:03047300025CBA6E
:0304E40002047699
:030476000231331D
:20313300AFC4785CEFF2AFC3785DEFF21231FD122E914003122F99758201122CFEAC828C10
:2031530082123C8012327E758206122CFEAC82900485ECF0758207122CFEAC82AD83AEF0B8
:20317300FFEC4D4E4F24FF921A758205122CFEAC82AD83AEF0FFEC4D4E4F24FF92197582CA
:203193000E122CFEAC82AD83AEF0FFEC4D4E4F24FF921B121EB64015744DC0E07473C0E00E
:2031B3007480C0E01231C3158115811581024C7890736775F0801269E4E58124FCFFC007E0
:2031D300E58124FBF886820886830886F012054A158190737275F0801269E4D2AFD2AC9089
:2031F30003E8125D3B43EF1080FE75A700AFD974BF5FF5D975B28F75A90075B64075FF8030
:203213007E5E7F01EE24FFFCEF34FFFD8C068D07EC4D70F075EF0675A41075A70F75A4106D
:2032330075A70075E10143E24043A5F575A70F43A5F5E5A675A6FF75A70075844075B0009F
:2032530075850043B001D29475A700C289125DEA75B800D2AFC295D296D2EF75BCF975BAC0
:203273000075BB1B75D10775E34022121EF540157473C0E07473C0E07480C0E01231C315B2
:203293008115811581785CE2B44302801C785CE2B447028041785CE2B486028066785CE221
:2032B300B4910302334102336D786A7490F20874D1F20874CFF2087419F2786E7470F208FC
:2032D300745EF20874EAF2087419F27876740AF27822F20233A2786A7480F20874A1F20898
:2032F3007403F208741CF2786E74C0F20874E3F2087412F208741CF27876740AF27822F277
:203313000233A2786AE4F20874A1F20874BCF2087433F2786E7440F20874E3F20874CBF21B
:20333300087433F27876740AF27822F28061786A74C0F20874CAF2087489F2087436F278BB
:203353006EE4F2087428F20823F2087437F278767414F278227432F28035786AE4F208F2BD
:2033730008F208F2786EF208F208F208F27876F2785CE2FA7B00C002C003748BC0E074736A
:20339300C0E07480C0E01231C3E58124FBF58175820A122CFEAA82AB83AEF0FFEA4B4E4FDF
:2033B300601175820A122CFEAC82AD83AEF0FF7822ECF2758208122CFEAC82AD83AEF0FFA3
:2033D300EC4D4E4F6037758208122CFEAC82AD83AEF0FF9005FFECF0EDA3F0EEA3F0EFA334
:2033F300F09003E8E4F5F0126651786AC0E0E582F208E583F208E5F0F2D0E008F275820907
:20341300122CFEAC82AD83AEF0FFEC4D4E4F6037758209122CFEAC82AD83AEF0FF9005FF2A
:20343300ECF0EDA3F0EEA3F0EFA3F09003E8E4F5F0126651786EC0E0E582F208E583F208C4
:20345300E5F0F2D0E008F2758204122CFEAC82AD83AEF0FFEC4D4E4F6011758204122CFE38
:20347300AC82AD83AEF0FF7876ECF27876E2FB7D007E007F007854E4F208F208F208F27825
:20349300587414F208E4F208F208F28B828D838EF0EF1230DAAC827876ECF27822E2FC7DE0
:2034B300007E007F0078547401F208E4F208F208F278587432F208E4F208F208F28C828D22
:2034D300838EF0EF1230DAAC82AD83AEF0FF7822ECF2785CE2B44302801E785CE2B4470359
:2034F30002359A785CE2B4860302362B785CE2B491030236BC02374A78547480F2087423CC
:20351300F20874ADF2087418F27858E4F208740BF208746BF208741BF2786AE2F58208E25F
:20353300F58308E2F5F008E21230DA786AC0E0E582F208E583F208E5F0F2D0E008F27854A9
:203553007480F2087423F20874ADF2087418F27858E4F208740BF208746BF208741BF27847
:203573006EE2F58208E2F58308E2F5F008E21230DA786EC0E0E582F208E583F208E5F0F22A
:20359300D0E008F202376978547480F2087474F20874D2F208741AF278587480F20874CE70
:2035B300F2087434F208741DF2786AE2F58208E2F58308E2F5F008E21230DA786AC0E0E500
:2035D30082F208E583F208E5F0F2D0E008F278547480F2087474F20874D2F208741AF278B5
:2035F300587480F20874CEF2087434F208741DF2786EE2F58208E2F58308E2F5F008E212A5
:2036130030DA786EC0E0E582F208E583F208E5F0F2D0E008F202376978547440F20874B68D
:20363300F208749AF2087432F278587440F2087410F20874FDF2087434F2786AE2F5820899
:20365300E2F58308E2F5F008E21230DA786AC0E0E582F208E583F208E5F0F2D0E008F278FA
:20367300547440F20874B6F208749AF2087432F278587440F2087410F20874FDF208743462
:20369300F2786EE2F58208E2F58308E2F5F008E21230DA786EC0E0E582F208E583F208E581
:2036B300F0F2D0E008F20237697854E4F20874A1F20874BCF2087433F2785874C0F20874DB
:2036D300F7F20874BAF2087437F2786AE2F58208E2F58308E2F5F008E21230DA786AC0E02D
:2036F300E582F208E583F208E5F0F2D0E008F27854E4F20874A1F20874BCF2087433F2788F
:203713005874C0F20874F7F20874BAF2087437F2786EE2F58208E2F58308E2F5F008E2127A
:2037330030DA786EC0E0E582F208E583F208E5F0F2D0E008F2801F785CE2FE7F00C006C05A
:2037530007748BC0E07473C0E07480C0E01231C3E58124FBF581786E796AE2F5F0E3B5F07C
:203773001D08E2F5F009E3B5F01408E2F5F009E3B5F00B08E2F5F009E3B5F0028002801ABC
:20379300786A796EE22440F308E2344209F308E2340F09F308E2340009F375820B122CFE37
:2037B300AC82789CECF27F007E007D007854E4F208F208F208F278587464F208E4F208F25A
:2037D30008F28C828F838EF0ED1230DAAC82789CECF27850ECF208E4F208F208F275820B9B
:2037F300122B0C75820C122CFEAC82AD83AEF0FF78A0ECF2EC60337F007E007D0078547404
:2038130019F208E4F208F208F2785874DCF208E4F208F208F28C828F838EF0ED1230DAAC81
:2038330082AD83AEF0FF78A0ECF278A07950E2F309E4F309F309F375820C122B0C9005D9E8
:2038530074E8F07403A3F0E4A3F0A3F0786AE2F58208E2F58308E2F5F008E21262E3AC821A
:20387300AD83AEF0FF7850ECF208EDF208EEF208EFF2758208122B0C9005D974E8F0740391
:20389300A3F0E4A3F0A3F0786EE2F58208E2F58308E2F5F008E21262E3AC82AD83AEF0FFCC
:2038B3007850ECF208EDF208EEF208EFF2758209122B0C78227950E2F309E4F309F309F33E
:2038D30075820A122B0C786E796AE3F5F0C3E295F0FC09E3F5F008E295F0FD09E3F5F008BE
:2038F300E295F0FE09E3F5F008E295F0FF7822E2FA7B0074022AFAE43BFB9005D9EAF0EB39
:20391300A3F0EB3395E0A3F0A3F08C828D838EF0EF1262E37872C0E0E582F208E583F20819
:20393300E5F0F2D0E008F27875E2C313FF18E213FE18E213FB18E213FA786AE22AF208E27B
:203953003BF208E23EF208E23FF2758203122CFE1262947822C3E2F5F0740595F0505412DC
:20397300623AAE82AF839005F3EEF0EFA3F0900271126534AE82E583FF3395E0FDFC78727E
:2039930090059DE2F008E2A3F008E2A3F008E2A3F08E828F838DF0EC125EA3AC82AD83AEEF
:2039B300F0FF786AE22CF208E23DF208E23EF208E23FF2786AE2F58208E2F58308E2F5F069
:2039D30008E2121F2C7872E2F58208E2F58308E2F5F008E2121F68758203122CFEAC82AD85
:2039F30083AEF0FF782290059DE2F0E4A3F0A3F0A3F08C828D838EF0EF125EA3AC828C827F
:203A1300121FB7758202122CFEAC828C82121FDE4033758202122CFEAC828C82121FDE40F8
:203A330024758202122CFEAC828C82121FDE401574A2C0E07473C0E07480C0E01231C3158E
:203A53008115811581121C1FAF827850EFF208E4F208F208F2758202122B0C758203122C33
:203A7300FE1222DC75820F122CFE122333758212122CFE125831758210122CFE1258407539
:203A93008211122CFEAC828C8212584C7876E2F5821222951222D6AF827850EFF208E4F280
:163AB30008F208F2758204122B0C758203122CFE121A11025853A5
:207334004D502053694B20322E37206F6E20484D2D54525000322E37006661696C656420CD
:20735400746F20656E61626C65207265636569766572000A2A2A50414E49432A2A000072AB
:207374006164696F5F696E697469616C697365206661696C65640062616420626F617264FE
:20739400206672657175656E637920256400726164696F5F636F6E66696775726520666127
:0573B400696C65640036
:203AC900C027C0E0C0F0C082C083C007C006C005C004C003C002C001C000C0D075D0001020
:203AE9009803023BE1AF99300C0E300D03023BE18F8212136D023BE18F82C007121403D082
:203B0900077877E22401FD08E23400FEBD0009BE04067D007E00800B7877E22401FD08E295
:203B29003400FE7879E2B5050708E2B50602803A7877E2241BF58208E23406F583EFF078DB
:203B490077E22401FD08E23400FEBD0009BE04067D007E00800B7877E22401FD08E23400A0
:203B6900FE7877EDF208EEF2801B7864E2FD08E2FEBDFF05BEFF02800C0DBD00010E786489
:203B8900EDF208EEF2301B5078777979C3E3F5F0E295F009E3F5F008E295F0401B7879E279
:203BA9002400FD08E23404FE7877D3E29DF4B3FDB308E29EF4FE801578797977E3F5F0C3A8
:203BC900E295F0FD09E3F5F008E295F0FEC3ED9420EE94005002D2821099028061787B79B6
:203BE9007DE2F5F0E3B5F00B08E2F5F009E3B5F0028049301B0A308307200C04D21C803ECF
:203C0900787DE2241BF58208E2340AF583E0FF787DE22401FD08E23400FEBD0009BE0206EE
:203C29007D007E00800B787DE22401FD08E23400FE787DEDF208EEF28F998002D21CD0D0EC
:203C4900D000D001D002D003D004D005D006D007D083D082D0F0D0E0D02732787B797DE2B6
:203C6900F5F0E3B5F00A08E2F5F009E3B5F00122301C03023EE522AF8275A700C2AC787701
:203C8900E4F208F2787DF208F2787BF208F2787DF208F2D21CC28EAE89740F5E4420F58972
:203CA9008F82124272D28E759810C282D2AC22AF82C007123E91AD82AE83D007C3ED94016E
:203CC900EE94005002C3228F82123CD7D322AF82A2AC9238C2AC787BE22401FD08E234002B
:203CE900FEBD0009BE02067D007E00800B787BE22401FD08E23400FE787DE2B5050708E216
:203D0900B506028044787BE2241BF58208E2340AF583EFF0787BE22401FE08E23400FFBE3C
:203D29000009BF02067E007F00800B787BE22401FE08E23400FF787BEEF208EFF2301C24E1
:203D4900C027123EE5D027801B7862E2FE08E2FFBEFF05BFFF02800C0EBE00010F7862EE57
:203D6900F208EFF2A23892AC22858214858315787FE2700122123E91AC82AD83787FE2FA6F
:203D89007B00C3EC9AED9B501F787FECF27862E2FC08E2FDBCFF05BDFF02800C0CBC000118
:203DA9000D7862ECF208EDF2787FE2FD787BD3E29400F4B3FBB308E29402F4FC8D027F0069
:203DC900C3EB9AEC9F5008787BE2FFC3E49FFD787BE2241BFE08E2340AFF7C009005E8E581
:203DE90014F0E515A3F0E4A3F09005EBEDF0E4A3F08E828F838CF0C005126449D005ED25D5
:203E090014F514E43515F515787FE2C39DF2D21D10AF02C21D7F00787BE22DF208E23FF2FC
:203E2900787BC308E294024006787CE224FEF2A21D92AF787FE2603E9005E8E514F0E5153C
:203E4900A3F0E4A3F0787FE2FE7F009005EBEEF0EFA3F0900A1B75F000C007C006126449B3
:203E6900D006D007D21D10AF02C21D787BEEF208EFF2A21D92AFD21D10AF02C21D301C0363
:203E8900123EE5A21D92AF22A2AC921EC2AC787B797DC3E3F5F0E295F009E3F5F008E2952B
:203EA900F0401B787DE22400FE08E23402FF787BD3E29EF4B3FEB308E29FF4FF8015787DF2
:203EC900797BE3F5F0C3E295F0FE09E3F5F008E295F0FFA21E92AC8E828F8322301B0730F2
:203EE9008304200C0122C21CD29922A2AC921FC2AC78777979E2F5F0E3B5F00B08E2F5F001
:203F090009E3B5F002803A7879E2241BF58208E23406F583E0FF7879E22401FD08E2340034
:203F2900FEBD0009BE04067D007E00800B7879E22401FD08E23400FE7879EDF208EEF2801D
:203F4900027F00301B4F78777979C3E3F5F0E295F009E3F5F008E295F0401B7879E22400D8
:203F6900FD08E23404FE7877D3E29DF4B3FDB308E29EF4FE801578797977E3F5F0C3E29591
:203F8900F0FD09E3F5F008E295F0FEC3E49D74029E5002C282A21F92AC8F8222A2AC9220CD
:203FA900C2AC7879E2241BF58208E23406F583E0FFA22092AC8F8222A2AC9221C2AC7879F3
:203FC900E22401FE08E23400FFBE0009BF04067E007F00800B7879E22401FE08E23400FF8B
:203FE900EE241BF582EF3406F583E0FFA22192AC8F8222AF83E582900486F0EFA3F0A2ACED
:204009009222C2AC900486E0FEA3E0FF7879E22EFE08E23FFF530703EE241BF582EF3406AA
:20402900F583E0FFA22292AC8F82228582168583171241A9AC82AD837880E2FA7B00C3EC57
:204049009AED9B5002C3227881EAF208EBF27879D3E29400F4B3FAB308E29404F4FB78814C
:20406900C3E2F5F0EA95F008E2F5F0EB95F0501378797981D3E29400F4B3F3B308E2940499
:20408900F409F3AA16AB177F007879E2241BFD08E23406FE9005E8EDF0EEA3F0E4A3F0782B
:2040A900819005EBE2F008E2A3F08A828B838FF01264497881E2FC7880E2C39CF27881E272
:2040C9002516F51608E23517F517D22310AF02C22378797981E3C5F0E225F0F209E3C5F0A7
:2040E90008E235F0F27879C308E294044006787AE224FCF2A22392AF7880E26044AD16AE5F
:20410900177F009005E8741BF07406A3F0E4A3F07880E2FB7C009005EBEBF0ECA3F08D8246
:204129008E838FF0C004C003126449D003D004D22310AF02C2237879EBF208ECF2A2239253
:20414900AFD22310AF02C223301B4F78777979C3E3F5F0E295F009E3F5F008E295F0401B04
:204169007879E22400FE08E23404FF7877D3E29EF4B3FEB308E29FF4FF801578797977E3B1
:20418900F5F0C3E295F0FE09E3F5F008E295F0FFC3E49E74029F5002C282A22392AFD322DF
:2041A900A2AC9224C2AC78777979C3E3F5F0E295F009E3F5F008E295F0401778777979E356
:2041C900F5F0C3E295F0FE09E3F5F008E295F0FF80197879D3E29400F4B3FCB308E29404DF
:2041E900F4FD7877E22CFE08E23DFFA22492AC8E828F83221241A9AE82AF83E4C39EFE7447
:20420900049FC423CEC423541F6ECE541FCE6ECEFF9005F3EEF0EFA3F0900064126534AEF6
:2042290082E583A2E7CE33CE33CE54018E8222AF82BF0A0A75820DC007123CD7D0078F82CF
:20424900023CD7AF827E00BE0900501BEE75F003A424B9F582747335F0F583E493FDEFB575
:204269000502D3220E80E0C322AF82C00712424CD00740027F397E00BE0900501BEE75F07A
:2042890003A424B9F582747335F0F583E493FDEFB5050280030E80E0EE75F003A424B9FDB2
:2042A900747335F0FE8D828E83A3E493F58DAC8E5304F48D828E83A3A3E4934CF58E900569
:1642C900FFEFF0E4A3F0A3F0A3F090007DE4F5F012665102121A97
:1B73B900012C02029602042C0009960013600126B001392B08739608E6CB08A0
:2074E10000000000000000000000000000000000000000000000000000000000000000008B
:2075010000000000000000000000000000000000000000000000000000000000000000006A
:2075210000000000000000000000000000000000000000000000000000000000000000004A
:2075410000000000000000000000000000000000000000000000000000000000000000002A
:2042DF007F0078B3E224FFFD08E234FFFE8F037C00C3EB9DEC9E400302439DBF08004003E6
:2042FF0002439D7829E2B5030808E2B50403024399EF75F002A4FDAEF0C007ED2475F54DD2
:20431F00EE3404F54E854D82854E83A3E0FF8F4F7550007829E2FA08E2CA25E0CA33FFEA2A
:20433F002465FAEF3404FF8A828F83A3E0FF8F51755200854D82854E83E0FF7A00ED2465F5
:20435F00F582EE3404F583E0FE7D00C007C04FC050C051C052C007C002C006C005C003C02E
:20437F000474D4C0E07473C0E07480C0E01207D2E58124F3F581D007D0070F0242E1789D42
:20439F00E2FE7F00C007C0061226DCAC82AD83D006D0077868E2F55108E2F5527866E2F505
:2043BF004F08E2F5507864E2F54D08E2F54E7862E2F55308E2F554785EE2F55508E2F556C5
:2043DF007860E2FA08E2FBC006C007C004C005C051C052C04FC050C04DC04EC053C054C0CB
:2043FF0055C056C002C00378A8E2C0E008E2C0E07829E2C0E008E2C0E074FCC0E07473C01E
:20441F00E07480C0E01207D2E58124E9F58178A8E4F208F22278A7E2540160030242DF2225
:20443F00AF827E0078989005F3E2F008E2A3F08F828E83126534AE82AF837896E22EFE0874
:20445F00E23F8E82F58322AE82AF83789AC3E29E08E29F5008789AE4F208F2800A789AE27A
:20447F00C39EF208E29FF2788AC3E2F5F0EE95F008E2F5F0EF95F050030247667884C30844
:20449F00E29480400B7829E2F5F008E245F0706F7884E2FC08E2FD788474012CF2E43D08DD
:2044BF00F278B3900603E2F008E2A3F08C828D83C007C0061266BDAC82AD83D006D0077875
:2044DF0029E2B5040708E2B50502800280317883E4F278B3900603E2F008E2A3F07884E257
:2044FF00F58208E2F583C007C0061266BDE5828583F0D006D0077884F208E5F0F2804F78F2
:20451F0084C308E29480504178B3900603E2F008E2A3F0900001C007C0061266BDAC82AD65
:20453F0083D006D0077884E2C39CFC08E29DFD78B3E224FFFA08E234FFFBECB5020BEDB5DD
:20455F00030778837402F2800578837401F2788AD3E29EF4B3FEB308E29FF4FF7883E2B42E
:20457F000210788EE2FC08E2FD788AECF208EDF28019788CE2FC08E2FD788AECF208EDF24F
:20459F00C007C006121AE3D006D007C007C006121EB6D006D0077822C3E2F5F0740195F075
:2045BF00500B78A1E4F208F278A5F208F27883E2600302475DC006C007789CE2FC7D007835
:2045DF009DE2F5578D58ECC39557FEED9558FFBE640ABF0007D007D00602475DD007D006A8
:2045FF00C006C007C007C006C005C004C049C04AC04BC04C90333375F073743F12619785BF
:20461F00825985835A85F05BF55CE58124FCF581D004D005D006D007789EE2F58208E2F57D
:20463F0083C005C00412699DAA82AB83AEF0FFD004D005C007C006C005C004C002C003C03C
:20465F0006C00790000075F0A0744012619785825D85835E85F05FF560E58124FCF581D05C
:20467F0004D005D006D0077891798CE3C5F0E225F0FE09E3C5F008E235F0CE25E0CE33FF77
:20469F008E828F83C005C00412699DAA82AB83AEF0FFC002C003C006C007855D82855E8365
:2046BF00855FF0E560126B15AA82AB83AEF0FFE58124FCF581D004D005C007C006C005C082
:2046DF0004C002C003C006C007855982855A83855BF0E55C1268BA85824985834A85F04B3C
:2046FF00F54CE58124FCF581D004D005D006D007789EE4F208F2ECC39557FCED9558FD8C28
:20471F00828D8312695CAC82AD83AEF0FFC007C006C004C005C006C007854982854A83854C
:20473F004BF0E54C126504E58124FCF581D006D007E58224FF922EB3922CD007D006789A50
:20475F00E4F208F20244867883E2B40210C007C006121ABC121FB7D006D007800EC007C0DC
:20477F0006121AAC121FB7D006D007788AE2C39EF208E29FF222AF827883E2B40224EF708C
:20479F00217829E2F5F008E245F070047582012278297993E24400F308E2448009F375825D
:2047BF0000227883E270030249BF102600EF60030248547884E2F5F008E245F060467893A5
:2047DF00E254FFFE08E2547FFF7884E224FFFC08E234FFFD78B3E224FFFA08E234FFFB90E2
:2047FF000603EAF0EBA3F08C828D83C007C0061266BDAC82AD83D006D007EEB50406EFB5FD
:20481F00050280297884E2F5F008E245F070227893E254FFFE08E2547FFF78B3E224FEFC30
:20483F0008E234FFFDEEB50408EFB50504758201227582002278B5E270030249AD7893E249
:20485F0054FFFE08E2547FFF78AFE2FC08E2FDEEB50406EFB505028002D2287893C308E2B4
:20487F00948050797893E22401FE08E23400FF78B3E224FFFA08E234FFFB900603EAF0EB6F
:20489F00A3F08E828F83C005C0041266BDAE82AF83D004D005ECB50644EDB507407893ECB0
:2048BF00F208EDF212623AAE82AF837896E2FA08E2CA25E0CA33FB900603EAF0EBA3F08ED6
:2048DF00828F831266BDAE82AF837896E22EFE08E23FFF789AEEF208EFF202497A7893ECB3
:2048FF00F274804D08F278299005F3E22401F008E23400A3F07896E2F58208E2F58312655B
:20491F0034AE82AF83C007C00612623AAC82AD8378299005F3E22402F008E23400A3F078FF
:20493F0096E2F58208E2F583C005C004126534AA82AB83D004D005900603EAF0EBA3F08C53
:20495F00828D831266BDAC82AD83D006D007EC2EFEED3FFF789AEEF208EFF27896E2FE0852
:20497F00E2CE25E0CE33CE25E0CE33FF900603EEF0EFA3F0789AE2F58208E2F5831266BD94
:20499F00E5828583F0789AF208E5F0F2800E78297993E24400F308E2448009F375820022AF
:2049BF007883E2705A30260C7893E4F2087480F27582002230271078297993E24400F308B2
:2049DF00E2448009F3800E7829E2FE08E2FF7893EEF208EFF2102802802178969005F3E2F7
:2049FF00F008E2A3F0900006126534E5828583F0789AF208E5F0F275820022758201227510
:204A1F008201221222D6E582FF24EB4005789DE4F2221226DCE5828583F0249CFEE5F034C7
:204A3F00FFFFC3E49E74808FF063F08095F0E433FD700C789DE26007789DE214F28037C3E4
:204A5F00740A9E74808FF063F08095F05008789DE2240AF28020C374059E74808FF063F0A1
:204A7F008095F05008789DE22405F28009ED6006789DE22401F2789CE2FE7F00789DE2FC58
:204A9F007D00EEC39CFEEF9DFFC3EE9414EF648094805008789C799DE224ECF3227829E258
:204ABF00F5F008E245F06003302A0E900595E4F0C22AD210121B178007900595E02401F052
:204ADF00900595E0FFBF02005004C29580457895E4F2A2299295B229788474FFF208F290E2
:204AFF0005E5E4F09005E67410F0E4A3F090047575F0001264219005E5E4F09005E6741021
:204B1F00F0E4A3F090046575F00012642178A8E4F208F2900595E0FF24FC5029302B0F75A9
:204B3F00F005EF84AFF0BF0410121AE3800BC210121B17121ABC121FB7900595E0FF24C30C
:204B5F00500343EF1078AAE4F208F2302507781FE2FF78A7F2B225900596E02401F0E0FFF4
:204B7F00BF0408124A22900596E4F022AE82AF839002BD75F000C007C006126AFDE58285A4
:204B9F0083F02401FCE435F0FD9005E874BDF07402A3F0E4A3F09005EBECF0EDA3F09005CD
:204BBF008475F000126449D006D00778B1EEF208EFF2D22D22AF82BF02004017EF24EF40E3
:204BDF0012900488E0FEBE520A900489E0FEBE540280237E00C3EE9F501BEE2488F582E4B0
:204BFF003404F583E0F582C007C006124238D006D0070E80E02278AF79B1E2F308E209F32D
:204C1F009005E87488F07404A3F0E4A3F09005EBEFF0E4A3F09002BD75F000C0071264497A
:204C3F00D007EF24BDF582E43402F583E4F09002BD7441F0781DEFF2BF041B9002BFE0FF59
:204C5F00BF49139002C0E0FFBF350B78AC7401F27582000212E002130D125DACAE82AF83D5
:204C7F0078B6EEF208EFF278FF762A78FFB62A02801DC007C0067440C0E07474C0E07480B4
:204C9F00C0E01231C3158115811581D006D007781CE2B44102801DC007C006744DC0E07474
:204CBF0074C0E07480C0E01231C3158115811581D006D007C007C006121561D006D007787E
:204CDF00A7E2600FC007C006124434D006D00778A7E4F2300A16900485E06010200C0DC250
:204CFF000AC007C006120951D006D007C007C006125DAC78B9E582F208E583F278377488A6
:204D1F00F2087404F29000B875F060121B1CD006D007400302502E789AE4F208F278B8E256
:204D3F00B40400502A78B8E2FC7D00C007C006C004C0057463C0E07474C0E07480C0E012DC
:204D5F0007D2E58124FBF581D006D007024C8A7883E2700AD2267893E4F2087480F278B88D
:204D7F00E22488FCE43404FDEC24FCFCED34FFFD9005E8ECF0EDA3F0E4A3F09005EB740404
:204D9F00F0E4A3F09000AD75F060C007C006126449D006D00778B8E214141414F278AFE235
:204DBF00F56108E2F56230E73B7895E2B4FF0050117884E2F5F008E245F070067895E2247D
:204DDF0001F27884E4F208F278AFE2FC08E2FD53057F8C82C007C006121AD8D006D007D214
:204DFF002A024C8A302B3F78AEE220E6397895E2B4FF00501E74012561FCE43562FD788436
:204E1F00E2B5040708E2B50502800280067895E22401F278AFE2FC08E2FD788474012CF2A2
:204E3F00E43D08F2D22A78AFE2FC08E2FDC3EC9408ED9400507CC006C007EDCC25E0CC336E
:204E5F00FDEC2465FCED3404FDC006C005C004121C13AF82D004D005D0067E0078AFE2FAE2
:204E7F0008E2CA25E0CA33FBEA2465F582EB3404F583E09005F3F0E4A3F0900007C007C0F0
:204E9F0006C005C004126534AA82AB83D004D005D006D007EA2FFAEB3EC423CAC423541FC2
:204EBF006ACA541FCA6ACAFB8C828D83EAF0D007D00678A8E22401F208E23400F278ADE25E
:204EDF00FC08E2541FFD4C6003024F7878B8E27003024F7878B8E2B4047178AFE2FC08E26D
:204EFF00FDC3EC9408ED9400506178B8E21414F278B8E22488FAE43404FB8A828B83E0FA2A
:204F1F00A3E0FB7829E2B5020708E2B5030280028039EDCC25E0CC33FDEC2475FCED340474
:204F3F00FD7B009005E87488F07404A3F0E4A3F078B89005EBE2F0E4A3F08C828D838BF05D
:204F5F00C007C006126449D006D00778A8E224FFF208E234FFF2024C8A78ADE2FC08E254FA
:204F7F001FFD4C7003024C8A78ADE2FC08E2541FFD788AECF208EDF278B879B5E270030484
:204F9F008001E4F375820112479578B9E2FE08E2FF78AEE2C4035401FDBD012278B8C3E2E4
:204FBF00F5F0740195F04003024C8A78B8E2F582C007C006124BD4D006D007024C8A78B8DC
:204FDF00E27003024C8A78AEE223540124FF920B78197488F2087404F278B8E2F582C00704
:204FFF00C006121260D006D0075003024C8A300C03024C8AC29678B8797FE2F3900488C028
:20501F0007C006123D72D006D007D296024C8AC007C006125DAC78B9E582F208E583F2D092
:20503F0006D00778B9E2C39EFC08E29FFD8C828D83C005C004124466D004D00578B9E2FE61
:20505F0008E2FF788C7991E3F5F0C3E295F0FA09E3F5F008E295F0FB788AC3E2F5F0EA9508
:20507F00F008E2F5F0EB95F05003024C8A7883E2B4022A788E7991E3F5F0C3E295F0FA09F5
:20509F00E3F5F008E295F0FB788AC3E2F5F0EA95F008E2F5F0EB95F05003024C8AC006C0D4
:2050BF000778B979B6E3F5F0C3E295F0FA09E3F5F008E295F0FB7E007F00C3E49A74809B76
:2050DF00E49E74808FF063F08095F0D007D006501DC007C006C005C004124ABCD004D00573
:2050FF00D006D00778B979B6E2F308E209F378A0E2700302519FC007C006C005C004121C26
:20511F0019AB82D004D005D006D00778A0C3E2F5F0EB95F0500B78A1E22CF208E23DF280B5
:20513F003E78A1E4F208F278A5E2F5F008E245F0702DC007C00612623AAC82AD8378A39045
:20515F000603E2F008E2A3F08C828D831266BDE5828583F0D006D00778A5F208E5F0F27823
:20517F00A379A5E3C5F0E225F0FC09E3C5F008E235F0FD78A1C3E29C08E29D5003024C8A0B
:20519F0078B5E4F2758200C007C006124795E582D006D0077003024C8A789AE2F5F008E259
:2051BF0045F06003024C8AC007C006121BFCD006D007400DC007C006121BE3D006D0075016
:2051DF00237896E2FC08E2FD789AECF208EDF27883E26003024C8AD2267893E4F2087480F6
:2051FF00F2024C8A7829E2F5F008E245F0600B7895E2B414005003024C8AC006C0077829C4
:20521F00E2FC08E2CC25E0CC33FDEC2465FCED3404FD0CBC00010DC007C006C005C0041249
:20523F001C19AB82D004D005D006D0077A007829E2FE08E2CE25E0CE33FFEE2465FEEF3447
:20525F0004FF8E828F83A3E09005F3F0E4A3F0900003C005C004C003C002126534AE82AF6D
:20527F0083D002D003D004D005EE2BFEEF3AC313CE13CEC313CE13CE8C828D83EEF0D00721
:20529F00D006302C03024C8A788A7996C3E3F5F0E295F009E3F5F008E295F05003024C8A74
:2052BF00788AE2FC08E2FD7896E2FA08E2CA25E0CA33FBECC39AFCED9BFD30E7047D00808B
:2052DF00367896E2FB08E2CB25E0CB33FC788AE2C39BFB08E29CFC7898900597E2F008E223
:2052FF00A3F08B828C83C007C006125E09AB82AC83D006D0078B05BD05005003024C8AED67
:20531F0024FBFD7890C3E29D50047890E2FDC007C006C0051241A9E5828583F0D005D00675
:20533F00D00745F0604230283F7883E2B40139788CE2FB08E2C313CB13CBC313CB13CBFC79
:20535F00788AC3E29B08E29C5003024C8A90048874FFF078B87401F278AEE24420F27888C7
:20537F0074FFF208F20254747883E2B40203025470202D03025413C006C00790058475F0C5
:20539F0000C007C006C005126AFDAB82AC83D005D006D0078D027F00C3EA9BEF9CD007D0BD
:2053BF0006405190058475F000C007C006C005126AFDAB8278B8EBF29005E87484F07405D6
:2053DF00A3F0E4A3F09005EBEBF0E4A3F090048875F000126449D005D006D00778AEE244C4
:2053FF0020F278B1E2FB08E2FC7888EBF208ECF2C22D806178177488F2087404F28D82C03F
:20541F0007C006C005120D6AE58278B8F2121209D005D006D007922FE433FC78AE13E29299
:20543F00E5F278AEE230E52D78B1E2FB08E2FC7888EBF208ECF278ACE2FC78AC04F28C8253
:20545F00C007C006C0051212E0D005D006D007800478B8E4F278B87990C3E2F5F0E395F0A0
:20547F005021C007C006C0057478C0E07474C0E07480C0E01231C3158115811581D005D035
:20549F0006D0077883E2B40103D38001C3922FE43378AE13E292E6F2C007C006C005121291
:2054BF0006D005D006D007922FE433FC78AE13E292E7F27883E2600302563678B8E26003A8
:2054DF00025636BD1200500302563678B3E224FFFC08E234FFFD78AAC3E29C08E29D4003FC
:2054FF000256367829C3E2940808E2940040030256367896E2FC08E2CC25E0CC33FD788C27
:20551F00E2C39CFC08E29DFD788AC3E29C08E29D400302563678AA7929E2F5F0E3B5F00BF2
:20553F0008E2F5F009E3B5F0028002800B78AAE22401F208E23400F278B87402F278AAE216
:20555F00FC08E2CC25E0CC33FDEC2465FCED3404FD0CBC00010D7829E2FA08E2CA25E0CA10
:20557F0033FBEA2465FAEB3404FB8A828B83A3E08C828D83F078AAE2FC08E2CC25E0CC33EE
:20559F00FDEC2465FCED3404FD9005E8ECF0EDA3F0E4A3F09005EB7402F0E4A3F090048893
:2055BF0075F000C007C0061264499005E874AAF0E4A3F07460A3F09005EB7402F0E4A3F055
:2055DF0090048A75F000126449D006D00778B87404F278AAE22401F208E23400F278AA795D
:2055FF0029E2F5F0E3B5F00B08E2F5F009E3B5F0028002800B78AAE22401F208E23400F26F
:20561F0078ADE4F208E254E0F278AEE2547FF278AEE254DFF280537883E2601E78B8E270B6
:20563F00197883E2B402028003024C8A7829E2F5F008E245F06003024C8A78B8E22404F551
:20565F0082C007C00612443FAC82AD83D006D007788AE2C39CFC08E29DFD78ADECF208EDC1
:20567F00541FF5F0E254E045F0F27883E2B402267829E2F5F008E245F0701BC007C006120C
:20569F001AD2AD82D006D0077C0043048078AFEDF208ECF2800A78AF7929E3F20809E3F2E6
:2056BF0078B8E22488FCE43404FD7B009005E874ADF0E4A3F07460A3F09005EB7404F0E445
:2056DF00A3F08C828D838BF0C007C006126449D006D00778AEE220E52A78B8E2601E78AD9A
:2056FF00E2FC08E2541FFD4C6012C2967886E2FC08E2FD7888ECF208EDF28007788874FFBB
:20571F00F208F27883E2700F78B8E27006D228D2278010C227800C7883E2B401067894E21C
:20573F00547FF23028217883E2B4011BC2287896799AE2F308E2F5F0E325E0C5F033C5F02B
:20575F00F309E5F0F3800E7896E2FC08E2FD789AECF208EDF2789CE2FC7D00789DE2FA7B53
:20577F0000ECC39AFCED9BFDBC6405BD0002801F78B8E22404F582C007C00612443FAC82BC
:20579F00AD83D006D007789EE22CF208E23DF278B8E22404FD783F7488F2087404F2788890
:2057BF00900407E2F008E2A3F0788A7941E2F308E209F38D82C007C006121E5ED006D00792
:2057DF00401078B8E2600BC007C00612120CD006D00778A0E2600B78A1E4F208F278A5F216
:2057FF0008F2C007C006121AAC121FB7121EB6D006D00778B8E27003024C8A78ADE2FC0848
:20581F00E2541FFD4C7003024C8AD296024C8AA22A22AE82AF8378B374012EF2E43F08F213
:20583F0022AE82AF837886EEF208EFF222E58224FF922B22121C1FAF829005FFEFF0E4A3FB
:20585F00F0A3F0A3F09003E8E4F5F0126651AC82AD83AEF0FF9005D9ECF0EDA3F0EEA3F0C0
:20587F00EFA3F090120075F07AE41262E3AC82AD83AEF0FF74082CF563E43DF564E43EF53F
:20589F0065E43FF566AA63E564C4CAC4540F6ACA540FCA6ACAFBE565C454F04BFBAE65E5DB
:2058BF0066C4CEC4540F6ECE540FCE6ECE7898EAF208EBF29005FFEAF0EBA3F0E4A3F0A32A
:2058DF00F0902710E4F5F0C003C00212665185826785836885F069F56A9005FFE563F0E50F
:2058FF0064A3F0E565A3F0E566A3F0900271E4F5F0126651AC82AD83AEF0FFD002D003C3DF
:20591F00E5679CE5689DE5699EE56A9F500A789874012AF2E43B08F278989005F3E2F00836
:20593F00E2A3F090000D126534E5828583F07896240DF2E435F008F230193478907474F299
:20595F007899E2F5F018E225E0C5F033C5F0F208E5F0F27898E2FE08E2CE25E0CE33CE2552
:20597F00E0CE33FF7896E22EF208E23FF28005789074F8F27896E2F56308E2C56325E0C5EE
:20599F006333F5647891E563F208E564F278989005FFE2F008E2A3F0E4A3F0A3F07890E28C
:2059BF00FA7B007C007D008A828B838CF0ED12665185826785836885F069F56A7896E2F50E
:2059DF006B08E2F56CE4F56DF56EE56B2567FCE56C3568FDE56D3569FEE56E356AFFEC2C8F
:2059FF00F567ED33F568EE33F569EF33F56AAA63AB64E4FEFFEA2567FAEB3568FBEE356933
:205A1F00FEEF356AFFE56B2AFCE56C3BFDE56D3EFEE56E3FFF78A0E2603578A37438F2086E
:205A3F007401F2785474A8F2087403F208E4F208F27858ECF208EDF208EEF208EFF28C8249
:205A5F008D838EF0EF1230DAAC82AD83AEF0FFC374FF9C741F9DE49EE49F50087CFF7D1F1D
:205A7F007E007F00C3EC94A8ED9461EE9400EF940040087CA87D617E007F00788CECF20807
:205A9F00EDF27898E2F56B08E2F56CE4F56DF56EE56B256BF56BE56C33F56CE56D33F56DB6
:205ABF00E56E33F56EE56B256BF56BE56C33F56CE56D33F56DE56E33F56E7896E2F5670895
:205ADF00E2F568E4F569F56AE567256BF56BE568356CF56CE569356DF56DE56A356EF56E95
:205AFF00E56B256BF56BE56C33F56CE56D33F56DE56E33F56EE56B256BF56BE56C33F56C6D
:205B1F00E56D33F56DE56E33F56E7891E2F56308E2F564E4F565F566E563256BF56BE564F6
:205B3F00356CF56CE565356DF56DE566356EF56EE567256BFCE568356CFDE569356DE56AA3
:205B5F00356E788EECF208EDF27836E27E0024F6FFEE34FFFE9006107402F0E4A3F08F82DE
:205B7F008E83126849AE82AF8378989005F3E2F008E2A3F08E828F83126534AE82AF837842
:205B9F0096E22EF208E23FF2788C7996E3F5F0C3E295F0FE09E3F5F008E295F0FF78989051
:205BBF000597E2F008E2A3F08E828F83125E09AE82AF837890E2FC7D00C3EC9EED9F50044E
:205BDF008C068D078E8212120F78AF74FFF208F27884F208F29005E5E4F09005E67410F092
:205BFF00E4A3F090047575F0001264219005E5E4F09005E67410F0E4A3F090046575F000F8
:205C1F0012642178AC7413F29005957406F0D295C226227891E2C0E008E2C0E07829E2C0D4
:205C3F00E008E2C0E0748DC0E07474C0E07480C0E01207D2E58124F9F581900001125D3BFF
:205C5F00788CE2C0E008E2C0E07829E2C0E008E2C0E074A6C0E07474C0E07480C0E0120779
:205C7F00D2E58124F9F581900001125D3B7890E2FE7F00C006C0077829E2C0E008E2C0E05E
:1B5C9F0074C0C0E07474C0E07480C0E01207D2E58124F9F581900001025D3BEB
:2073D4005B25755D204C2F5220525353493A2025752F257520204C2F52206E6F6973653AB7
:2073F4002025752F25750A005B25755D20706B74733A202575207478653D2575207278650D
:207414003D2575207374783D2575207372783D2575206563633D25752F25752074656D7016
:207434003D25642064636F3D25750A00737461636B20626C6F776E0A00706461746120634C
:20745400616E617279206368616E6765640A00496E76616C6964206C656E6774682E2E2024
:2074740025750A006F76657273697A65642074646D207061636B6574005B25755D2073692E
:207494006C656E63655F706572696F643A2025750A005B25755D2074785F77696E646F779C
:2074B4005F77696474683A2025750A005B25755D206D61785F646174615F7061636B6574B3
:0D74D4005F6C656E6774683A2025750A00CC
:205CBA00C027C0E0C0F0C082C083C007C006C005C004C003C002C001C000C0D075D00075A8
:205CDA009104121450E51860021518D0D0D000D001D002D003D004D005D006D007D083D0B4
:205CFA0082D0F0D0E0D02732AE82AF83C3EE94F6EF940940047518FF2274092EFEE43FFF89
:205D1A00900597740AF0E4A3F08E828F83125E09AE828E182285821822E518B40100923010
:205D3A0022125D02125D3350FB22C027C0E0C0F0C082C083C007C006C005C004C003C00250
:205D5A00C001C000C0D075D00075C80474012519F519E4351AF51A301B03123C64D0D0D01F
:205D7A0000D001D002D003D004D005D006D007D083D082D0F0D0E0D02732AFCDAECCEFB565
:205D9A00CDF88F05E4FFFCEE4207EC42058F828D8322AE19AF1AC007C006125D94AC82AD09
:205DBA0083D006D007EEB519E9EFB51AE5EEC40354F8FF7E00EDC403CCC40354076CCC54A5
:205DDA0007CC6CCCFDEC4206ED42078E828F832275A7007592407593B075910443E68075B0
:0F5DFA00CA0075CB0075C804D2AD2285CC8222B9
:205E0900AF83E582900599F0EFA3F090059BE4F0A3F0900597E0FEA3E0FF7D10900599E082
:205E2900FBA3E0FC339231ECCB25E0CB33FC900599EBF0ECA3F090059BE0FBA3E0CB25E04D
:205E4900CB33FC90059BEBF0ECA3F030311290059BE0FBA3E0FC90059B74014BF0ECA3F059
:205E690090059BE0FBA3E0FCC3EB9EEC9F401D90059BEBC39EF0EC9FA3F0900599E0FBA325
:1A5E8900E0FC90059974014BF0ECA3F0DD8E900599E0FEA3E08E82F5832222
:205EA300AF82AE83ADF0FC9005A1EFF0EEA3F0EDA3F0ECA3F09005A5E4F09005A1E0FCA38C
:205EC300E0FDA3E0FEA3E0FF7B0090059DE0F56FA3E0F570A3E0F571A3E0F572235401FAC1
:205EE3007074C003E56F256FF8E57033F9E57133FAE57233FB90059DE8F0E9A3F0EAA3F08C
:205F0300EBA3F090059DE0F56FA3E0F570A3E0F571A3E0F572C3EC956FED9570EE9571EF47
:205F23009572D0035027E572C313F572E57113F571E57013F570E56F13F56F90059DF0E50B
:205F430070A3F0E571A3F0E572A3F080090B9005A5EBF0025ECD9005A5E0FF9005A1E0FB68
:205F6300A3E0FCA3E0FDA3E0FE90059DE0F56FA3E0F570A3E0F571A3E0F572C3EB956FECCF
:205F83009570ED9571EE957240179005A1EBC3956FF0EC9570A3F0ED9571A3F0EE9572A340
:205FA300F090059DE0FBA3E0FCA3E0FDA3E0C313FEED13FDEC13FCEB13FB90059DF0ECA3E9
:205FC300F0EDA3F0EEA3F08F061FEE708E9005A1E0FCA3E0FDA3E0FEA3E08C828D838EF0FB
:015FE300229B
:205FE400AF82AE83ADF0FC9005AAEFF0EEA3F0EDA3F0ECA3F09005A9E0FF7E209005AAE02A
:20600400FAA3E0FBA3E0FCA3E0FD8F1B751C00751D00751E0090059DE51BF0E51CA3F0E50A
:206024001DA3F0E51EA3F08A828B838CF0EDC007C006125EA3AA82AB83D006D00774302A1E
:20604400FD9005CEF08D04EC24C650079005CE74072DF01EEE24AEFCE43405FD9005CEE0FC
:206064008C828D83F09005AAE0FAA3E0FBA3E0FCA3E0FD9005D9E51BF0E51CA3F0E51DA3E1
:20608400F0E51EA3F08A828B838CF0EDC007C0061262E3AA82AB83ACF0FDD006D0079005DA
:2060A400AAEAF0EBA3F0ECA3F0EDA3F09005AAE0F5F0A3E042F0A3E042F0A3E045F0600352
:2060C4000260009005A6E0FCA3E0FDA3E0FFEE24AEF582E43405F583E0FB8C828D838FF0FD
:2060E4001264E9A3AC82AD830EBE20E28C828D838FF0E40264E9AF82AE83ADF0FC9005D33B
:20610400EFF0EEA3F0EDA3F0ECA3F09005D3E0FCA3E0FDA3E0FEA3E0FF30E73F9005D2E0B8
:20612400FBBB0A379005CFE0F9A3E0FAA3E0FB89828A838BF0742D1264E99005CF74012997
:20614400F0E43AA3F0EBA3F09005D3C3E49CF0E49DA3F0E49EA3F0E49FA3F09005D3E0FCFE
:20616400A3E0FDA3E0FEA3E0FF9005CFE0F9A3E0FAA3E0FB9005D2E0F89005A6E9F0EAA380
:13618400F0EBA3F09005A9E8F08C828D838EF0EF025FE4B4
:206197001262B5BC0003026AB5EF60FA30D502B2D1E583B4FF03026ACBE582B4FF03026A2E
:2061B700CB258340072482400B026AB52483145003026ACBF582EA8DF0A4A8F0EA8EF0A491
:2061D70028F8E435F0F9EB8DF0A428E935F0F9E433CA8FF0A429F9EA35F0FAEBF88EF0A417
:2061F70029F9EA35F0FAE433FBEC8DF0A429F9EA35F0FAE43BFBE88FF0A42AFAEB35F0FBBF
:20621700E433CCFD8EF0A42AFAEB35F0FBE43CFCED8FF0A42BFBEC35F0FC20E7031263EE6A
:03623700026A9464
:20623A00900C1BE0FCA3E0FDA3E0FEA3E0FF9005FFECF0EDA3F0EEA3F0EFA3F0904E6D757B
:20625A00F0C67441126651AC82AD83AEF0FF900C1B74392CF074303DA3F0E43EA3F0E43F29
:20627A00A3F0900C1BE0A3E0A3E0FEA3E0FF8E048F0553057F8C828D8322AF83E5829005E9
:1B629A00D7F0EFA3F09005D7E0FEA3E0FF900C1BEEF0EFA3F0E4A3F0A3F02291
:047AE10001000000A0
:2062B500AA82AB83A2F73392D1F5826002D2F7ACF0E58124F9F8E6FD08E6FE0886F008E64C
:0E62D500A2F73392D5F5836002D2F7AFF02224
:2062E300AF82AE83ADF0FC9005DDEFF0EEA3F0EDA3F0ECA3F09005E1E4F0A3F0A3F0A3F0CC
:206303009005D9E0FCA3E0FDA3E0FEA3E0FF756F209005DDE0F8A3E0F9A3E0FAA3E0FB33B5
:206323009232E828F8E933F9EA33FAEB33FB9005DDE8F0E9A3F0EAA3F0EBA3F09005E1E032
:20634300F8A3E0F9A3E0FAA3E0FBE828F8E933F9EA33FAEB33FB9005E1E8F0E9A3F0EAA327
:20636300F0EBA3F030321E9005E1E0F8A3E0F9A3E0FAA3E0FB9005E1740148F0E9A3F0EADE
:20638300A3F0EBA3F09005E1E0F8A3E0F9A3E0FAA3E0FBC3E89CE99DEA9EEB9F403190053F
:2063A300E1E8C39CF0E99DA3F0EA9EA3F0EB9FA3F09005DDE0F8A3E0F9A3E0FAA3E0FB9020
:2063C30005DD740148F0E9A3F0EAA3F0EBA3F0D56F0280030263149005DDE0FCA3E0FDA301
:0B63E300E0FEA3E08C828D838EF02290
:0604A800E478FFF6D8FD28
:2063EE007804EC7011E58224F8500AF582E4C9CACBFCD8EF22EC7820058220E713D58201AE
:13640E0022C3E933F9EA33FAEB33FBEC33FCD8EA158222BB
:20642100AC82AD839005E6E0FEA3E0FFBE000360121F0F9005E5E08C828D831264E9A3DE69
:08644100FADFF88C828D832242
:20644900AFF0AE83E5829005EDF0EEA3F0EFA3F09005EDE0F56FA3E0F570A3E0F571AA6FD7
:20646900AB70AC719005E8E0F8A3E0F9A3E0FF9005EBE0F572A3E0F573AD72AE731572749B
:20648900FFB572021573ED4E6020888289838FF0126BD8FEA3A882A9838A828B838CF0EE23
